:020000040800F2
:10000000300A0020593F0008BD140008C114000840
:10001000C5140008C9140008CD1400080000000031
:10002000000000000000000000000000D1140008E3
:10003000D514000800000000D91400089913000826
:10004000733F0008733F0008733F0008733F0008C8
:10005000733F0008733F0008733F0008733F0008B8
:10006000733F000835140008551400087514000883
:10007000733F000819140008733F0008733F00081D
:10008000733F0008733F000800000000B913000828
:10009000733F0008733F0008733F0008733F000878
:1000A000733F0008733F0008733F0008733F000868
:1000B000733F000800000000733F000800000000CC
:1000C000733F000800000000733F0008733F000802
:1000D000733F0008733F0008733F000800000000F2
:1000E0000000000000000000733F0008733F00089C
:1000F000733F0008733F0008733F0008733F000818
:10010000733F00080000000000000000733F00087B
:1001100000000000000000000000000000000000DF
:1001200000000000000000000000000000000000CF
:1001300000000000000000000000000000000000BF
:1001400000000000000000000000000000000000AF
:100150000000000000000000733F0008733F00082B
:10016000733F0008733F000800F002F800F048F801
:100170000AA090E8000C82448344AAF10107DA4502
:1001800001D100F03DF8AFF2090EBAE80F0013F00C
:10019000010F18BFFB1A43F001031847C4530000B6
:1001A000E4530000103A24BF78C878C1FAD8520747
:1001B00024BF30C830C144BF04680C6070470000E1
:1001C0000023002400250026103A28BF78C1FBD860
:1001D000520728BF30C148BF0B607047642903F045
:1001E000B987002070471FB504F0A6FB040000206B
:1001F000002104F0E5FB401C60601FBD10B510BD80
:1002000004F078F91146FFF7EEFF00F083F804F0F0
:100210007DFB03B4FFF7F2FF03BC00F02FF80000F2
:10022000B0B544F200450446C4F200052846214614
:1002300003F0FCFB284640F2077103F041FE002862
:10024000F8D02046B0BD00BF10B544F20044C4F25F
:100250000004204640F2057103F032FE012808D068
:1002600001F048FF204640F2057103F029FE012805
:10027000F6D1204603F0DEFB10BD00BF704700BF83
:10028000B0B5044603200D4602F030FA40F20E608D
:1002900002F032F940F2117002F02EF94FF0904066
:1002A0000121042202F018F84FF0904002210122AF
:1002B000042301F0A3FF4FF0904000210322042308
:1002C00001F0C6FF4FF090400121082202F004F82F
:1002D0004FF0904002210122082301F08FFF4FF0E0
:1002E000904000210322082301F0B2FF204603F0D2
:1002F00013FB2046294603F02BFB204603F07AFB34
:100300002046082103F082FB20460421BDE8B040CE
:1003100003F084BB82B003F09DFE40F21800C2F2ED
:100320000000006848F21F51C5F2EB11A0FB01016B
:100330004FF0FF3000EB51110020B0EB116F0DD1E9
:100340004EF21002CEF2000251604EF62351CEF270
:100350000001F0230B7090600720106000F036FC65
:1003600008B900BFFEE740F20044C4F6000400F004
:1003700029FC00F047FC00F073FC20460421012218
:1003800001F08EFF00F0C6FE00F00AFE01F0B2FEA2
:1003900000F09CFF40F256150826C2F2000500BF8F
:1003A0000A202E7077B201F07BF8002FA6F101062B
:1003B000F6DC0020287000BF4FF09040202101F0B3
:1003C00077FF10B101F096FEF6E744F20040C4F268
:1003D00000004FF46141FFF753FF40F2D81940F29B
:1003E000100840F2140AC2F2000988A58BA601AFDA
:1003F000C2F200084FF4804BC2F2000A04E000BFD2
:1004000003F068FE01F076FED9F80000411C284692
:10041000C9F8001003F05EFE002001903046394616
:1004200003F0D4FE18B97EA0002103F053FE019919
:10043000481E062848D8DFE800F00425567799BB07
:10044000E60040F20000C2F200000221016040F22A
:1004500004014FF09040C2F20001086040F2080031
:10046000C2F200004FF40061016040F20C00C2F2E1
:100470000000046004F58060CAF800007EA0C8F89F
:1004800000B0BDE740F20000C2F2000002210160AE
:1004900040F204014FF09040C2F2000108604FF4B6
:1004A0000060C8F8000040F20800C2F2000040F20C
:1004B0000C01C0F800B004F58060C2F20001CAF877
:1004C000004008606AA09BE7A1F1090010F1120F3B
:1004D00000F290806AA003F0FDFD012000F092F987
:1004E000BDF904008AE040F208010220C2F20001D6
:1004F000086040F20C014FF09040C2F20001086029
:1005000040F20000C2F200004FF40061016040F2CE
:100510000400C2F20000046004F58060C8F800B076
:10052000CAF8000050A06BE740F208010220C2F2B6
:100530000001086040F20C014FF09040C2F200014F
:1005400008604FF40060C8F8000040F20000C2F2FA
:10055000000040F20401C0F800B004F58060C2F26F
:100560000001CAF8004008603DA049E70220C8F831
:1005700000004FF09040CAF8000040F20000C2F2C4
:1005800000004FF40061016040F20400C2F200007C
:10059000046040F20800C2F2000040F20C01C0F812
:1005A00000B004F58060C2F2000108602AA027E7CD
:1005B0000220C8F800004FF09040CAF8000040F256
:1005C0000800C2F200004FF40061016040F20C002C
:1005D000C2F20000046040F20000C2F2000040F2EB
:1005E0000401C0F800B004F58060C2F200010860A8
:1005F00017A005E7002000F005F9002000F008F939
:1006000001F078FD00E700F045F800BF3D3D3D3DBD
:100610003D3D3D3D3D3D2025640D0A002564000023
:10062000496E76616C696420696E70757421205022
:100630006C6561736520656E74657220616E2069FA
:100640006E7465676572202564200D0A0000000045
:100650003620434241000000352043414200000063
:100660003420424341000000332042414300000057
:10067000322041434200000031204142430000004B
:10068000596F7520656E74657265643A2025640D36
:100690000A00000082B040F2571040F25615C2F234
:1006A00000000024C2F20005047000BF0A202C7074
:1006B00000F0F6FE0134082CF8D1002400200021BF
:1006C000012200232C700094019401F05FF844F2A1
:1006D0000040C4F2000003F01FF9002000F092F87F
:1006E000002000F095F840F20040C4F6000004211C
:1006F000002201F0D5FD00BF01F0FCFCFCE700BFCB
:10070000B0B540F200441028C4F600040DD12046D4
:100710000821012201F0C4FD4FF090404FF4004148
:100720000122BDE8B04001F0BBBD05460838B0FA73
:1007300080F042092046082101F0B2FDA5F50040F5
:10074000B0FA80F042094FF090404FF4004101F0C0
:10075000A7FD204610210022BDE8B04001F0A0BD59
:1007600040F2CC11C2F2000101380968B0FA80F001
:100770004009002211F1320FB8BF0122104001469A
:1007800040F256121CBF05210420C2F20002117073
:1007900040F25711C2F200010870704780B5DDF8D1
:1007A00008C0A1F1010EBEF1050F08D8DFE80EF078
:1007B000030D10141B220021116018601DE00020A1
:1007C00010601860CCF8000080BD414211600CE060
:1007D00041421160002102E0002111604142196094
:1007E000CCF8000080BD1060404218600020CCF8BA
:1007F000000080BD0021106019604042CCF800006C
:1008000080BD00BF40F25011C2F200010870704775
:100810004FF61841CFF6FF7110F57A7FC8BF014639
:1008200040F25210C2F20000B1F57A7FA8BF4FF437
:100830007A710180704700BF2DE9F04F81B040F21E
:10084000C410C2F20000B0F90010B1F57A7F14DADA
:1008500040F24C1240F22603C2F20002C2F2000340
:100860005288B3F9007001310180B81800EBD070E4
:100870004008188001B0BDE8F08F40F25814C2F271
:100880000004258845F62940684381B2890841EA79
:10089000803080B2000940F24C182828C2F20008CB
:1008A00034D840F21C0BC2F2000BDBF8000004F05D
:1008B0008DFB8146B8F800008A4604F088F94CF2B6
:1008C0000003C3F69873002204F094F94AF6FC1270
:1008D00046F24D23CDF2F122C3F6507304F08AF9AB
:1008E00048F22B724FF2CE7306460F46CDF6161223
:1008F000C3F6EF734846514604F07CF932463B4656
:1009000004F0A6F804F072F8CBF8000040F256109C
:10091000C2F200000078691C2180A8B141F259722E
:1009200089B2CDF2B712A1FB022340F25712C2F2F4
:10093000000212781F0B0132B7FBF2F77A43C2EBC9
:100940001332002A00F0B480002240F20040C4F6C6
:1009500000004FF4007101F0A3FC40F22601C2F246
:100960000001B8F80200B1F9001042F60049401A3F
:10097000C4F2010904F014F948F23F024CF69C134A
:10098000C9F6C912C3F6C97304F034F904F02EF89D
:1009900040F25C1120F00040C2F20001086000212A
:1009A000C4F2701104F04BFB80B940F25010C2F257
:1009B0000000007850B140F22800C2F20000007838
:1009C000012803D0484602F0BBFA02E0484602F094
:1009D000BDFA40F2040040F20001C2F20000C2F28F
:1009E00000010068096801F063FC40F20C01C2F2EA
:1009F00000010A6840F2080140F2AD14C2F20001A1
:100A0000C2F2000409682070104601F051FC40F267
:100A10001401C2F200010A6840F2100140F2AE1562
:100A2000C2F20001C2F2000509682870104601F008
:100A30003FFC40F2AF11C2F20001087021782A7821
:100A400001EB800040F2AC1100EB4200C2F2000169
:100A5000087045F2585140F2A812C0B2C0F6000129
:100A6000C2F2000240F25213095C1068C2F20003A5
:100A700040F2C618B3F90030C2F20008A0EB2030F3
:100A800088F80010184440F2541301391060020B2A
:100A9000C2F2000305291A801BD840F30F30DFE8AB
:100AA00001F0031C2022252907464042002624E0AD
:100AB000B1FBF0F202FB101000287FF44EAF40F2C1
:100AC0005A10C2F200000178B1FA81F14A090270AD
:100AD0003BE70026002700200FE0464207460020A3
:100AE0000BE0464208E04742002606E04742064641
:100AF000002002E00646404200274FF6A535CFF61B
:100B0000FF752946A842C8BF014640F25B4401F286
:100B10006542A04248464FF00201C8BF4FF40C6244
:100B200002F074FB2846AF42C8BF384600F2654267
:100B300048460121A742C8BF4FF40C6202F066FB91
:100B4000AE42C8BF354605F2654248460021A6427E
:100B5000C8BF4FF40C6202F059FB40F2D016C2F24B
:100B60000006306840F2B01441097C299CBF013076
:100B70003060C2F20004217898F8005030680129F2
:100B800012D0012D10D104F095FB01464FF6EC1068
:100B9000C4F2F84004F07CFA40F2C811C2F200013D
:100BA00008600020306008E0B0F57A6F05D340F2AD
:100BB000C810C2F2000000210160257001B0BDE83C
:100BC000F08F00004FF4407001F0C6BB80B540F6D6
:100BD0001D1001F0C5FD002818BF01F0CFFD40F643
:100BE000FF70022101F0B0FA012809D140F6FF7030
:100BF00001F090FA012803D101F084FA012080BDB0
:100C0000002080BDB0B54FF4E16001F075FC42F208
:100C10000004C4F20004204601F0CEFF40F2E015CB
:100C2000C2F2000500204FF4001148F6A042C5E9C9
:100C3000001028732046AA6002F0A4F82046294636
:100C400002F024F813200021002201F08FFB20463F
:100C5000012102F001F92046BDE8B04002F080B861
:100C600010B540F2115001F047FC40F2125001F073
:100C700043FC40F2135001F03FFC40F2165001F0EB
:100C80003BFC40F20044C4F600042046012100224F
:100C9000082301F0B3FA204600210122082301F0C5
:100CA000D7FA4FF09040012100224FF4004301F0A9
:100CB000A5FA4FF09040002101224FF4004301F0CB
:100CC000C7FA204601210022102301F097FA20469E
:100CD00000210122102301F0BBFA2046012100224D
:100CE000202301F08BFA204600210122202301F06D
:100CF000AFFA2046012100224FF4807301F07EFA02
:100D00002046002101224FF4807301F0A1FA40F245
:100D1000040040F20001C2F20000C2F200010068CB
:100D20000B680021002201F069FA40F20C0040F249
:100D30000801C2F20000C2F2000100680B68002145
:100D4000002201F05BFA40F2140040F21001C2F2FE
:100D50000000C2F2000100680B680021002201F0CF
:100D60004DFA4FF0904002210122042301F046FA8F
:100D70004FF0904002210122082301F03FFA4FF08A
:100D8000904000210322042301F062FA4FF09040CA
:100D900000210322082301F05BFA4FF0904001216B
:100DA000042201F099FA4FF090400121082201F04D
:100DB00093FA4FF0904003210022102301F01EFA15
:100DC0004FF0904003210022402301F017FA4FF02A
:100DD000904003210022402301F010FA2046032115
:100DE0000022012301F00AFA2046022100224FF4DA
:100DF000805301F003FA204602214FF4805201F0A3
:100E00006BFA4FF09040022100224FF4806301F012
:100E1000F5F94FF09040022100224FF4007301F0E9
:100E2000EDF94FF09040022100224FF4807301F061
:100E3000E5F92046022100224FF4004301F0DEF9DB
:100E40002046022100224FF4804301F0D7F92046CA
:100E5000022100224FF4005301F0D0F94FF09040EE
:100E6000002100224FF4806301F0F2F94FF090402E
:100E7000002100224FF4007301F0EAF94FF0904096
:100E8000002100224FF4807301F0E2F92046002196
:100E900000224FF4004301F0DBF92046002100223C
:100EA0004FF4804301F0D4F92046002100224FF492
:100EB000005301F0CDF94FF0904002214FF48062D1
:100EC00001F00AFA4FF0904002214FF4007201F055
:100ED00003FA4FF0904002214FF4807201F0FCF9C8
:100EE000204602214FF4004201F0F6F9204602218B
:100EF0004FF4804201F0F0F9204602214FF40052F5
:100F000001F0EAF9204601210022042301F076F9DC
:100F1000204600210122042301F09AF920460221F3
:100F20000122402301F06AF9204602210122802398
:100F300001F064F9204600210322402301F088F9E2
:100F4000204600210322802301F082F9204600215F
:100F5000402201F0C1F920460021802201F0BCF9B5
:100F60002046012100224FF4007301F047F920468A
:100F7000002103224FF4007301F06AF94FF0904012
:100F800000210022202301F039F904F580600021BE
:100F900001224FF40043BDE8104001F02FB900BF1B
:100FA00070B540F20B6001F0A7FA42F60044C4F2BB
:100FB0000104204601F000FE40F21825C2F20005AF
:100FC00000264FF4001040F6CA01C5E9000620468D
:100FD000A9602E7301F0D6FE2046294601F056FE88
:100FE00020460221002202F035F92046012100228C
:100FF00002F030F920460021002202F02BF92046B1
:101000000221002202F008F920460121002202F00C
:1010100003F920460021002202F0FEF820460221BA
:10102000702202F0D5F820460121702202F0D0F89B
:1010300020460021702202F0CBF820460221002237
:1010400002F0E4F820460121002202F0DFF82046F9
:101050000021002202F0DAF840F20825C2F2000571
:101060004FF40020C5F806004FF00070C5F80A00E4
:10107000204602212A4601F097FF204601212A46F8
:1010800001F092FF204600212A4601F08DFF40F238
:10109000F011C2F200014FF400603C22C1E90006E9
:1010A00001F108004FF480534FF4804564C020469E
:1010B0004B6101F027FF204601F058FE2046022137
:1010C000012202F04FF920460121012202F04AF9E3
:1010D00020460021012202F045F920460221042287
:1010E00002F066F920460121042202F061F920464F
:1010F0000021042202F05CF90D200021002201F001
:1011000035F92046012101F0A7FE2046BDE87040D8
:1011100001F026BEF0B581B040F2096001F0ECF9B3
:101120004FF4A06001F0E8F9032001F089FA0920EA
:10113000012100220127002501F018F9002000F00C
:101140002BFE40F26011C2F2000140F24C10C2F2DC
:10115000000001F10C0C4FF4806242F24C448CE828
:1011600025004FF440500223C4F20104086200201D
:101170004FF4807681E8D000C1E9065300F030FEDC
:10118000002000F06BFE002000F08CFE0020022109
:1011900000F07AFF0020022100F0B8FE002000F0ED
:1011A0008DFE0120022100F0F9FB00200421022223
:1011B00000F01EFC01200621022200F019FC002094
:1011C00000F0DEFB0120012100F0B6FC01204FF40D
:1011D000602100F0D5FC00F061FB00F073FB00F033
:1011E000C3FD00F011FB00F027FB00F039FB4FF4CA
:1011F0008070012101B0BDE8F04000F08FBB00BF5E
:10120000B0B540F2117001F077F94FF4A06001F031
:1012100073F944F20044C4F2000420464FF4E13173
:1012200002F096FB20460021002502F0BFFB20467D
:10123000002102F0C7FB2046002102F0CFFB204630
:10124000002102F053FC2046082102F0DFFB20467B
:10125000042102F0E3FB204602F0CCFB0B2002212C
:10126000002201F083F8042000F096FD40F2841182
:1012700040F22820C2F20001C2F200000122C1E9BE
:1012800002204FF4405004F1240308620420C1E915
:101290000035C1E90455C1E9065200F0A1FD042062
:1012A00000F0DCFD042000F0FDFD2046402102F0AE
:1012B000C9FD0420022100F0E7FE0420012100F016
:1012C00025FE0420BDE8B04000F0F8BDB0B540F206
:1012D0000E6001F011F94FF4A06001F00DF943F632
:1012E0000004C4F2010420464FF4964102F030FBA2
:1012F00020460021002502F059FB2046002102F083
:1013000061FB2046002102F069FB2046002102F02B
:10131000EDFB2046082102F079FB2046042102F073
:101320007DFB204602F066FB0A200221002201F02C
:101330001DF8022000F030FD40F2841140F2292017
:10134000C2F20001C2F200000122C1E902204FF402
:10135000405004F1240308620220C1E90035C1E9CC
:101360000455C1E9065200F03BFD022000F076FD75
:10137000022000F097FD2046402102F063FD02208C
:10138000022100F081FE0220012100F0BFFD0220B9
:10139000BDE8B04000F092BD40F2B410C2F20000CF
:1013A000016801310160704740F2DC10C2F20000B8
:1013B00000210160704700BF40F2DC10C2F2000063
:1013C0000168B1F5FA6F18D940F22800C2F20000A6
:1013D000017879B940F2D411C2F2000100220A600A
:1013E00040F2CC11C2F200010A6040F22001C2F2C8
:1013F00000010A700121017007E040F22802C2F2E8
:101400000002002301311370016042F20000C4F2B7
:101410000000012101F036BD80B5012000F0C6FBBF
:1014200042F60040C4F201000121BDE8804001F015
:1014300029BD00BF80B5FFF7FFF90020022100F0B1
:10144000DFFD002808BF80BD00200221BDE88040EC
:1014500000F010BE80B50220022100F0D1FD00286E
:1014600008BF80BD00F0C6F802200221BDE8804020
:1014700000F000BE80B50420022100F0C1FD00286C
:1014800008BF80BD00F0F2F804200221BDE88040D2
:1014900000F0F0BD40F2B410C2F2000000687047E6
:1014A000002808BF704740F2B411C2F200010A6878
:1014B00000BF0B689B1A8342FAD37047704700BF86
:1014C000FEE700BFFEE700BFFEE700BFFEE700BF8C
:1014D000704700BF704700BF70470000F0B581B093
:1014E00092B114460D460646002700BFE95D30461E
:1014F00002F09CFA304640F2067102F0E1FC00284E
:10150000F8D00137A742F1D101B0F0BDB0B500224B
:10151000012917DB41F2210E03788C46013982EA5A
:101520000322082314B25500002CA3F1010348BF85
:101530008EEA42051A062A46F4D1BCF1020F00F1E8
:101540000100E9DA90B2B0BDB0B584B040F21C0041
:10155000C2F2000000244AF6CD310068C4F2C8246B
:10156000ADF80010214603F021FF03F087FE40F2A2
:101570005C11C2F200010968ADF806000846214678
:1015800003F014FF03F07AFE40F2B811C2F200013A
:10159000ADF80800D1E90105214603F007FF03F08B
:1015A0006DFE40F2C811C2F200010968ADF80A00F0
:1015B0000846214603F0FAFE03F060FEADF8020093
:1015C0002846214603F0F2FE03F058FE6C46ADF8C3
:1015D000040020460C21FFF799FFADF80C0043F6FC
:1015E0000000C4F2010021460E22FFF777FF04B08D
:1015F000B0BD00BFB0B540F22920C2F200000178B2
:1016000040F222002F29C2F2000004BF0022028013
:10161000B0F90020002A27D4531C9CB240F23815A0
:10162000C2F20005072C0380A95418BFB0BD4FF6C5
:10163000FF71B5F80540018028460521FFF766FFD8
:10164000844211D140F2CC10B5F90110C2F2000071
:10165000B5F90320016040F2D410C2F2000002602C
:10166000BDE8B040FFF7A0BEB0BD000070B540F2CD
:101670002820C2F20000017840F224002F29C2F293
:10168000000004BF00220280B0F90020002A46D4E6
:10169000531C9EB240F23F14C2F200040C2E038091
:1016A000A15418BF70BD4FF6FF71658901802046B7
:1016B0000A21FFF72BFF854231D1607840F22002EA
:1016C000C0F3C001C2F20002117040F2B811C0F3C1
:1016D0008002C0F3400500F001061120C2F20001B3
:1016E00060700870D4F80200D4F8063040F200446C
:1016F000C4F60004C1E9010304F580604FF4005111
:1017000000F0CEFD20462021324600F0C9FD2046E3
:101710004FF480712A46BDE8704000F0C1BD70BD35
:10172000F0B581B0417840F22003C1F3C002C2F2AB
:101730000003D0F8026040F2B8141A701123C2F20C
:10174000000443706660D0F8060040F20046C4F61C
:101750000006C1F38002C1F3400701F00105A0605B
:1017600006F580604FF40051237000F099FD30467B
:1017700020212A4600F094FD30464FF480713A460D
:1017800001B0BDE8F04000F08BBD00BF10B584B0E3
:1017900041EAC2112F228DF804204FF61842DDE9EC
:1017A000064CCFF6FF7210F57A7FC8BF024641EAB9
:1017B0004301B2F57A7FA8BF4FF47A728DF80740E3
:1017C00001AC8DF80A1020460721ADF80520ADF8D0
:1017D00008C0FFF79BFEADF80B0044F20040C4F2D6
:1017E000000021460922FFF779FE04B010BD000079
:1017F00080B540F2093000F0BFFE40F20930BDE88C
:10180000804000F0C9BE00BF42F20840C4F20100AF
:101810000168C90718BF7047016841F00101016004
:10182000704700BF42F20840C4F20100016821F095
:1018300001010160704700BF42F20840C4F201009C
:10184000016841F00801016001680907FCD40168E2
:1018500041F00401016000BF01684907FCD47047F2
:1018600042F20840C4F20100016841F48071016055
:10187000704700BF42F20840C4F20100016821F441
:1018800080710160704700BF42F20840C4F201005D
:10189000016841F400010160704700BF42F2084056
:1018A000C4F20100016821F400010160704700BF2B
:1018B00042F20840C4F20100016841F08071016009
:1018C000704700BF42F20840C4F20100016821F0F5
:1018D00080710160704700BF42F20442C4F201020D
:1018E0001368022823F4C053136011D0012818BFD5
:1018F0007047106820F4604010604FF4604000EBC7
:101900004130116880B2084310604FF4006001E07C
:101910004FF48050116808431060704742F204424F
:10192000C4F20102002900F4807105D0B9B9410563
:101930001BD480071FD4704719B1116821F480713E
:101940001160410503D5116821F4806111608007A1
:1019500058BF7047506820F002005060704711680F
:1019600041F4807111604105E3D5116841F4806153
:1019700011608007DFD5506840F00200506070476A
:1019800042F20841C4F201010A68002822F4006210
:1019900018BF02F500620A60704700BF022814D029
:1019A000012818BF704742F22C40C4F201000268BF
:1019B00022F4700202604FF4700202EB01510268DF
:1019C00001F4700111430160704742F22C40C4F2EF
:1019D0000100C26822F44012C2604FF4401202EBD0
:1019E0000151C26801F440111143C160704700BF4A
:1019F00080B5B1F1120342F20C4C18BF0B4605281A
:101A0000C4F2010C0DD8DCF828E000EB80001F21A7
:101A100081402EEA010103FA00F00843CCF82800C7
:101A200020E00B280ED800EB8000DCF824E01E3804
:101A30001F2181402EEA010103FA00F00843CCF88F
:101A400024000FE00F280DD800EB8000DCF820E028
:101A50003C381F2181402EEA010103FA00F00843BF
:101A6000CCF82000092B0CD8DCF8040003EB430170
:101A700007238B40984302FA01F10843CCF8040095
:101A800080BD112B88BF80BD03EB4301DCF8000053
:101A90001E3907238B40984302FA01F10843CCF822
:101AA000000080BD80B542F2384CC4F2010CDCF875
:101AB0000030DCF800E0C3F30153181A00EB80009B
:101AC000C0F10F001F2383402EEA030301FA00F048
:101AD00018430929CCF800000CD85CF8280C01EB5D
:101AE000410107238B40984302FA01F108434CF867
:101AF000280C80BD122988BF80BD01EB41015CF834
:101B00002C0C1E3907238B40984302FA01F108433D
:101B10004CF82C0C80BD00BF42F21442C4F201020A
:101B2000536AC3F30153C01A033003289CBF6FF3F9
:101B30001F3142F82010704742F20842C4F20102FD
:101B4000002900F0010103D079B9800713D4704750
:101B500019B1116821F480111160800758BF7047D6
:101B6000106820F4004010607047116841F4801143
:101B700011608007EBD5106840F40040106070479A
:101B8000012805D0022818BF70476FF4E04001E03B
:101B90006FF4602042F20842C4F201021368184058
:101BA0001060106808431060704700BFC10742F220
:101BB0000841C4F2010103D00A6842F480020A60BD
:101BC000800758BF7047086840F4001008607047ED
:101BD00042F24C40C4F20100006880B2704700BF7E
:101BE00003280AD8DFE800F0020C131A42F23C4046
:101BF000C4F20100006880B27047002080B27047D4
:101C000042F23C40C4F20100406880B2704742F2A8
:101C10003C40C4F20100806880B2704742F23C4010
:101C2000C4F20100C06880B2704700BF42F20041B8
:101C3000C4F201010968084018BF0120704700BFC5
:101C400042F20041C4F201010A6822EA0000086081
:101C5000704700BF012807D0042807D002281CBF06
:101C600000207047202102E0402100E0802142F264
:101C70000042C4F20102136852681840114018BFB4
:101C80000121002818BF01200840704742F200419E
:101C9000C4F201010A6822EA00000860704700BF30
:101CA000C10742F20441C4F2010103D00A6842F0C4
:101CB00040020A60820703D50A6842F020020A60E7
:101CC000400758BF7047086840F0800008607047C0
:101CD000C10742F20441C4F2010103D00A6822F0B4
:101CE00040020A60820703D50A6822F020020A60D7
:101CF000400758BF7047086820F0800008607047B0
:101D000042F20441C4F201010A684FF6E053CFF6F3
:101D10003F731A400A600A6810430860086840F47C
:101D2000400040F400700860704700BF42F2044178
:101D3000C4F201010A684FF6FF53CFF63F73013832
:101D40001A40C3B2022B0A6088BF704740B203A298
:101D500052F820000A6810430860704700008000B5
:101D6000000040000000C00042F20440C4F2010044
:101D700001684FF6E052CFF63F72114001607047A4
:101D800042F224426FF31F30C4F201026FF31F319D
:101D90005060116070470000042200EB8001C4F223
:101DA000020202EB81014B68800023F001034B60CB
:101DB00000234B608B60CB600B610F21136801FA2D
:101DC00000F018431060704700210122C0E90011A3
:101DD000C0E90221C0E90412C0E90611016270479E
:101DE00010B540F2080ED1F800C000EB8000C4F23C
:101DF000020E0EEB8003C3F808C0CA68DA60CA6935
:101E00005A605EF820204B6822F47C5C0A690C6AF8
:101E100043EA0C031A4322434EF820208A685EF8F6
:101E20002030002A23F0400308BF40334EF8203012
:101E30004A695EF82030002A23F0800308BF80330F
:101E40004EF8203089695EF82020002922F0100227
:101E500018BF10324EF8202010BD00BF082100EB43
:101E60008000C4F2020151F8202042F0200241F823
:101E700020207047082100EB8000C4F2020151F8D5
:101E8000202022F0200241F820207047082100EB9A
:101E90008000C4F2020151F8202042F4804241F84F
:101EA00020207047082100EB8000C4F2020151F8A5
:101EB000202022F4804241F820207047082100EBC6
:101EC0008000C4F2020151F8202042F0010241F8E2
:101ED00020207047082100EB8000C4F2020151F875
:101EE000202022F0010241F820207047102200EB50
:101EF0008000C4F2020242F820107047142200EB66
:101F00008000C4F2020242F8201070470C2200EB5D
:101F10008000C4F2020242F8201070470C2100EB4E
:101F20008000C4F2020151F820007047082200EB43
:101F30008000C4F2020252F8203023F440531943C7
:101F400042F82010704700BF082200EB8000C4F266
:101F5000020252F8203023F44063194342F8201063
:101F6000704700BF082200EB8000C4F2020252F862
:101F7000203023F44073194342F82010704700BF0B
:101F8000082100EB8000C4F2020151F8202042F049
:101F9000800241F820207047082100EB8000C4F245
:101FA000020151F8202022F0800241F820207047E1
:101FB000082100EB8000C4F2020151F8202042F019
:101FC000400241F820207047082100EB8000C4F255
:101FD000020151F8202022F0400241F820207047F1
:101FE000082200EB8000C4F2020252F820300029DF
:101FF00023F0100318BF103342F82030704700BFA1
:1020000080B54B1E072B4FF0000131D840F2000C79
:10201000C4F2020CDFE803F0040E2C132C2C2C1855
:10202000DCF8001082000F239340194021FA02F3DC
:102030000E2113E0DCF800E08300022108E0DCF868
:1020400000E08300042103E0DCF800E083000821C5
:1020500001FA03F202EA0E0222FA03F300EB800017
:102060000CEB80008068084010EA030118BF0121D2
:10207000084680BD0422C4F202028000136801FAFF
:1020800000F0184310607047082200EB8000C4F293
:10209000020252F82030194342F82010704700BF66
:1020A000082200EB8000C4F2020252F8203023EA3A
:1020B000010142F8201070470022C4F202021268A7
:1020C000800001FA00F0104018BF0120704700BFE7
:1020D0000422C4F202028000136801FA00F01843DF
:1020E0001060704743F20000C4F20000002101605C
:1020F000704700BF43F20000C4F200004AF6AA2174
:102100000160704743F20000C4F200004CF6CC417D
:102110000160704743F20001C4F2000145F25552DC
:102120000A600222CFF6F072CB6803F004031AB102
:10213000002B02F10102F7D1002B11BF00206FF339
:102140001F3008610120704780B540F2020ECFF6C3
:10215000F07E43F2000CC4F2000C45F25552734677
:10216000CCF80020DCF80C2002F001021BB1002AA0
:1021700003F10103F6D16AB9CCF80410DCF80C10B5
:10218000BEF1000F01F0020103D000290EF1010E93
:10219000F4D109B1002080BD6FF31F30CCF80800E6
:1021A0004AF6AA20CCF80000012080BD43F20C01C1
:1021B000C4F200010968084018BF01207047000000
:1021C00000F138404FEAB020052888BF7047C1B2FF
:1021D0002F2222FA01F1C90700D1704710B545F24C
:1021E0004451C0F6000131F81040204600F0C4F917
:1021F0002046BDE8104000F0CFB900BF2DE9F04106
:10220000D0F800E0D0F80CC000244FF003080026FE
:1022100005E000BF0136102E04F1020412D023FAAB
:1022200006F7FF07F6D008FA04F72EEA070E01FAC0
:1022300004F54EEA050E2CEA070702FA04F547EA10
:10224000050CE7E7C0F800E0C0F80CC0BDE8F0817D
:10225000B0B50129416814BF994319434160D0F8D2
:1022600008C000214FF0030E002404E00134102CBC
:1022700001F102010CD023FA04F5ED07F6D00EFAB5
:1022800001F52CEA050C02FA01F54CEA050CEDE724
:10229000C0F808C0B0BD00BF81617047816270475F
:1022A0001823002A08BF282319507047416170473E
:1022B0000069084018BF0120704700BF006980B264
:1022C000704700BF4069084018BF0120704700BF39
:1022D000406980B2704700BFF0B5D0F820E0D0F878
:1022E00024C000230F27002505E000BF0135082D7D
:1022F00003F104030CD022FA05F6F607F6D007FA2C
:1023000003F62EEA060601FA03F446EA040EEDE7A8
:10231000082300240F2504E00133102B04F10404EA
:102320000CD022FA03F6F607F6D005FA04F62CEAEA
:10233000060701FA04F647EA060CEDE7C0F820E0CC
:10234000C0F824C0F0BD00BF41F48032C261C16159
:10235000C261C169C069704740F080604EF60C519F
:1023600040F0FD70CEF20001086070474EF60C5C44
:10237000CEF2000CDCF8003003F4E063B3F5E06F5C
:1023800003D14FF0000C04232BE0DCF8003003F401
:10239000E063B3F5C06F03D14FF0010C032320E0DD
:1023A000DCF8003003F4E063B3F5A06F03D102233F
:1023B0004FF0020C15E0DCF8003003F4E063B3F5F5
:1023C000806F03D14FF0030C01230AE0DCF80030EA
:1023D0004FF0040C03F4E063B3F5407318BF01231E
:1023E0009B0099400F2323FA0CF31A4011434EF23D
:1023F0000012CEF20002090140EA020383F8001342
:1024000000F01F01012303FA01F11C2303EAD000AD
:102410008150704700F01F01012202FA01F14EF2D3
:102420008012CEF2000242EAD00020F003000160E8
:10243000704700BF4FF68072C1F6FF72114008432B
:102440004EF60851CEF20001086070474EF610516A
:10245000CEF200010A681043086070474EF6105132
:10246000CEF200010A6822EA00000860704700BF4F
:102470004EF21001CEF200010A68042822F0040294
:1024800008BF04320A60704741F20400C4F202003F
:1024900050F8041C41F0010140F8041C50F8041CE1
:1024A0008907FBD501680C22C0F6FF0211400160CC
:1024B00001684FF6FF72CFF2C072114001600168EF
:1024C0004FF6FF7221F44001016050F8041CCFF672
:1024D000F262114040F8041C816A40F2431221F07C
:1024E0000F018162C16A9143C162016B21F0010158
:1024F000016300214160704741F2000300F01F01B9
:102500008009C4F202034FF0010CC2580CFA01F129
:102510001143C150704700BF41F2000300F01F019A
:102520008009C4F202034FF0010CC2580CFA01F109
:1025300022EA0101C150704741F2000300F01F017F
:102540008009C4F202034FF0010CC2580CFA01F1E9
:102550001143C150704700BF41F2000300F01F015A
:102560008009C4F202034FF0010CC2580CFA01F1C9
:1025700022EA0101C150704741F2000300F01F013F
:102580008009C4F202034FF0010CC2580CFA01F1A9
:102590001143C150704700BF41F2000300F01F011A
:1025A0008009C4F202034FF0010CC2580CFA01F189
:1025B00022EA0101C150704741F22000C4F202003A
:1025C000016841F480310160704700BF41F2200092
:1025D000C4F20200016821F480310160704700BF3D
:1025E00041F20401C4F202010A6822F0030210431E
:1025F0000860704741F20400C4F20200006800F075
:102600000C00704741F20401C4F202010A6822F092
:10261000F00210430860704741F20401C4F2020165
:102620000A6822F4E06210430860704741F2040136
:10263000C4F202010A6822F4605210430860704735
:1026400041F20401C4F202010A68042822F4404263
:102650000A60CA6A22F48072CA6288BF7047DFE8E3
:1026600000F003080A0E1200C86A20F48070C862E5
:10267000704708680AE0086840F4804006E008688F
:1026800040F4004002E0086840F440400860C86A36
:1026900040F48070C862704741F20401C4F2020144
:1026A0000A6822F440020A600A6810430860704712
:1026B00041F20402C4F202021368084323F0774394
:1026C00018431060704700BF41F20402C4F20202D6
:1026D000D2F800C04FF6FF73CFF2C27303EA0C03C7
:1026E00013601368084318431060704741F23001CB
:1026F000C4F202010A6822F003020A600A68104369
:102700000860704741F23001C4F202010A6822F009
:1027100040020A600A6810430860704741F22001D5
:10272000C4F202010A6822F440720A600A68104387
:102730000860704741F22C01C4F202010A6822F0DD
:102740000F0210430860704741F22001C4F20201F9
:102750000A6822F018020A600A681043086070478D
:1027600041F200028109C4F20202895800F01F0000
:1027700021FA00F000F00100704700BF41F2240090
:10278000C4F20200016841F080710160704700BF2F
:1027900041F20801C4F202010968084018BF012093
:1027A000704700BF41F20801C4F202010A681043F9
:1027B0000860704741F20801C4F202010A68104340
:1027C0000860704741F20801C4F202010A6822EA77
:1027D00000000860704700BF0146B0F5006F4FF081
:1027E00000001DDAE1B3102950D0182940F095807F
:1027F00041F2000C4FF6FE71C4F2020CC0F20F0160
:10280000002200BFDCF80000013942F10003800122
:1028100001D4002BF6D1DCF80000C0F34060704713
:102820004AD0B1F5106F61D0B1F5506F18BF704745
:1028300041F2000C4FF6FE71C4F2020CC0F20F011F
:10284000002200BFDCF83400013942F100038007A8
:1028500001D4002BF6D1DCF83400C0F340007047FF
:1028600041F2000C40F2FF40C4F2020C002200BF13
:10287000DCF80010013842F10003890701D4002B75
:10288000F6D1DCF80000C0F34000704741F2000CC4
:1028900040F2FF70C4F2020C002200BFDCF800100E
:1028A000013842F10003890301D4002BF6D1DCF892
:1028B0000000C0F3404070474FF6FE7141F2000C3B
:1028C000C0F20F01C4F2020C01F17C71002200BFC2
:1028D000DCF82000013942F10003800701D4002B0D
:1028E000F6D1DCF82000C0F34000704741F2000C44
:1028F0004FF6FE71C4F2020CC0F20F01002200BFBD
:10290000DCF82400013942F10003800701D4002BD8
:10291000F6D1DCF82400C0F34000704741F2000318
:1029200000F01F018009C4F202034FF0010CC258ED
:102930000CFA01F11143C150704700BF41F200038E
:1029400000F01F018009C4F202034FF0010CC258CD
:102950000CFA01F122EA0101C1507047B0F5006F95
:102960000FD0102818BF704741F20000C4F20200D7
:102970000168026841F4802122F480320260016023
:10298000704741F20000C4F20200016A026A41F09D
:10299000040122F00102026201627047B0F5006F8B
:1029A0000FD0102818BF704741F20000C4F2020097
:1029B0000168026821F4802122F480320260016003
:1029C000704741F20000C4F20200016A026A21F07D
:1029D000040122F0010202620162704741F200002C
:1029E000C4F20200016841F400210160704700BF99
:1029F00041F20000C4F20200016821F400210160EC
:102A0000704700BF41F20001C4F202010A6822F0DF
:102A1000F80242EAC0000860704700BF41F234018A
:102A2000C4F202010A6822F0F80242EAC00008601B
:102A3000704700BF41F20010C4F20200016800219B
:102A40000160016843F64D42C1F62B22114301603B
:102A5000704700BF41F23411C4F202010A6822F04B
:102A600007020A600A6810430860704741F2381193
:102A7000C4F202010A6822F001020A600A681043E7
:102A80000860704770B541F20402C4F202020146C8
:102A9000106841F2002CC0F27A0C00F00C000828FB
:102AA000634619D11068136815681B014FF01103B4
:102AB000C0F3834058BF0223ED03184405D440F609
:102AC0000013C0F23D03434306E0936A03F00F0393
:102AD0000133BCFBF3F343431468D2F800E0106801
:102AE00006291ED8C4F303142FA52C5D45F25055BA
:102AF000C0F60005C0F3C220285C23FA04F424FACF
:102B000000F0DFE801F00410123A06182000184621
:102B100070BDD16AC90531D449F68070C0F2D500C4
:102B200070BD002070BD204670BDCEF30220285C31
:102B300024FA00F070BDD06A40064FF4004058BF40
:102B400048F2120070BDD16A890708BF70BDD06A13
:102B500000F00300012818460FD0D06A00F00300EF
:102B6000022804BF4FF4004070BDD06A00F003009B
:102B7000032818BF4FF0000C604670BD1168C1F308
:102B80008131DFE801F00204060E400870BD8008C4
:102B900070BD4AF6AB21CAF6AA21A0FB0101880844
:102BA00070BDC00870BD00BF000000000000000044
:102BB000010203040607080910B542F6FF31C4F20A
:102BC0000101884211DC40F6FF71C4F20001884225
:102BD00020DCB0F1804F3CD040F20041C4F2000153
:102BE000884249D140F201443EE044F2FF31C4F250
:102BF000010188421DDC42F60041C4F20101884215
:102C00002AD044F20001C4F20101884234D14FF4C9
:102C1000447429E041F20001C4F2000188421ED050
:102C200042F20001C4F20001884225D14FF48164D0
:102C30001AE044F20041C4F20101884212D044F685
:102C40000001C4F20101884218BF10BD40F21234E5
:102C50000AE04FF4806407E040F20B3404E040F2F5
:102C6000044401E040F211342046FFF785FC204681
:102C7000BDE81040FFF790BC10BD00BF00214FF62B
:102C8000FF72C0E900118260017370470A8842F642
:102C9000004CB0F1804FC4F2010C826218BF604555
:102CA0002ED1036823F0700303604B8802681A4337
:102CB00002608A8803681A43026042F6FF338A681A
:102CC000C4F201039842C2620ADD44F2FF32C4F248
:102CD000010290421BDC604525D044F200021EE058
:102CE000B0F1804F1FD040F20042C4F20002904287
:102CF00019D042F20002C4F20002904213D02AE03E
:102D000040F20043C4F200039842CAD0D5E744F62B
:102D10000002C4F20102904205D044F20042C4F223
:102D20000102904217D1026822F440720260CA8800
:102D300003681343A0F18042A2F596324FEAB22213
:102D4000072A036007D8012303FA02F212F0E10F09
:102D50001CBF097B0163416941F00101416170477A
:102D6000016841F001010160704700BF016821F076
:102D700001010160704700BF016841F080010160FE
:102D8000704700BF016821F080010160704700BFFB
:102D9000016821F002010160704700BF016841F045
:102DA00002010160704700BF026822F06002026009
:102DB0000268114301607047016821F01001016051
:102DC000704700BF016841F010010160704700BF0B
:102DD000002A816218BF7047416941F001014161D9
:102DE000704700BF01637047C1627047416270471E
:102DF000406A7047806A80B2704700BF012907D0DF
:102E0000002918BF7047016841F008010160704750
:102E1000016821F008010160704700BF012907D057
:102E2000002918BF7047016841F004010160704734
:102E3000016821F004010160704700BF39B1012928
:102E400018BF7047816841F0080181607047816850
:102E500021F0080181607047C2681143C16070476A
:102E6000C26822EA0101C160704700BFC268006900
:102E70000A40084018BF0120002A18BF0122104054
:102E8000704700BFC9430161704700BF0069084037
:102E900018BF0120704700BFC9430161704700BFE0
:102EA000C2681143C1607047C26822EA0101C16073
:102EB000704700BF012907D0002918BF704741683B
:102EC00041F0080141607047416821F0080141600C
:102ED000704700BFD0F848C041F61F732CEA0303C7
:102EE0008364836C114319438164704742691143C1
:102EF000416170470021C0E90011C0E90211C0E939
:102F00000411704710B5D1E900230C891A434B898D
:102F1000D1E903CE22431A43496942EA0C0242EA4C
:102F20000E021143416410BD416C41F48051416473
:102F3000704700BF416C21F480514164704700BF6D
:102F4000416C41F480414164704700BF416C21F401
:102F500080414164704700BF426C012922F4004265
:102F600008BF02F500424264704700BF4268012971
:102F700022F0010208BF013242607047012907D0E8
:102F8000002918BF7047416821F004014160704773
:102F9000416841F004014160704700BF0021818118
:102FA000C0E9001181607047032900F20F81DFE85A
:102FB00001F0028D46D4016A21F0010101628169AC
:102FC00021F0030181611168036A19430162016AFA
:102FD00021F002010162D188036A0B43A0F1804114
:102FE000A1F596314FEAB1210729036200F2EE8084
:102FF000012303FA01F111F0E10F00F0E780016A0B
:1030000021F0040101629188036A19430162016A97
:1030100021F0080101621189036A1943016250F825
:10302000041F21F480710160518903681943016014
:10303000016821F40071016093890268C3E0016AAC
:1030400042F6044C21F480710162C169C4F2010CA2
:1030500021F00301C1611168036A43EA01210162A1
:10306000016A21F400710162D388016A41EA0321F7
:10307000ACF104039842016240F0A880016A21F497
:10308000806101629188036A43EA01210162016A59
:1030900021F4006101621189036A43EA012101629E
:1030A000DCF8000020F48050CCF800005089DCF8F7
:1030B000001041EA0010CCF80000DCF8000020F419
:1030C0000050CCF80000908902016DE0016A21F007
:1030D00010010162816921F4407181611168036A04
:1030E00043EA01110162016A21F020010162D188E5
:1030F000036A43EA011144F20003C4F20103984257
:10310000016255D042F60041C4F2010188425DD10E
:10311000016A21F0400101629188036A43EA0111CA
:103120000162016A21F0800101621189036A43EAA8
:103130000111016242F60440C4F20100016821F469
:10314000806101605189036843EA8101016001687F
:1031500021F400610160918933E0016A42F6044C78
:1031600021F480510162C169C4F2010C21F4407163
:10317000C1611168036A43EA01310162016A21F405
:1031800000510162D388016A41EA0331ACF10403C2
:103190009842016218BF7047DCF8000020F48040BC
:1031A000CCF8000050898201DCF8003060460AE06B
:1031B00044F20400C4F20100016821F4806101605E
:1031C000518903688A0042EA03010160704700BF29
:1031D000032988BF7047DFE801F0020E050B50F8A5
:1031E000181F01E050F81C1F21F07001016008E079
:1031F00050F81C1F01E050F8181F21F4E0411202A2
:103200000160016811430160704700BF03299CBF42
:1032100000EB810042637047032988BF7047DFE8F5
:1032200001F0020E050B50F8181F01E050F81C1FAA
:1032300021F00801016008E050F81C1F01E050F87F
:10324000181F21F40061120201600168114301603E
:10325000704700BF032988BF7047DFE801F0020E06
:10326000050B50F8181F01E050F81C1F21F0040155
:10327000016008E050F81C1F01E050F8181F21F40D
:10328000806112020160016811430160704700BF54
:10329000032988BF7047DFE801F0020E050B50F8E4
:1032A000181F01E050F81C1F21F08001016008E0A8
:1032B00050F81C1F01E050F8181F21F400411202C1
:1032C0000160016811430160704700BF032988BF96
:1032D0007047DFE801F00216080F50F8201F21F0B8
:1032E0000201016013E050F8201F120221F4007166
:1032F00001600CE050F8201F120321F4005101601E
:1033000005E050F8201F120121F020010160016842
:1033100011430160704700BF032988BF7047DFE891
:1033200001F00216080F50F8201F21F0080101607B
:1033300013E050F8201F120221F4006101600CE03C
:1033400050F8201F120321F40041016005E050F8FD
:10335000201F120121F0800101600168114301600A
:10336000704700BF032988BF7047DFE801F00216ED
:10337000080F50F8201F21F00101016013E050F800
:10338000201F120221F4807101600CE050F8201F10
:10339000120321F48051016005E050F8201F120152
:1033A00021F010010160016811430160704700BF06
:1033B00002290AD001290FD0002918BF704750F800
:1033C000201F21F0040101600CE050F8201F1202C0
:1033D00021F48061016005E050F8201F120121F006
:1033E0004001016001681143016070474FF4803172
:1033F0000160002141607047F0B5032900F28B8025
:10340000DFE801F0021B355784465CF8203F4FF09F
:10341000010E23F00103CCF80030DCF8003023F07B
:103420000A03CCF800301388DCF800703B43CCF87A
:103430000030034653F8187F32E084465CF8203FA2
:103440004FF0100E23F01003CCF80030DCF8003001
:1034500023F0A003CCF800301388DCF8007047EAB2
:103460000313CCF80030034653F8187F3AE0844643
:103470005CF8203F4FF4807E23F48073CCF800305A
:10348000DCF8003023F42063CCF800301388DCF83B
:10349000007047EA0323CCF80030034653F81C7F42
:1034A00027F003071F6054881D6804266FF0F0079B
:1034B00021E084465CF8203F4FF4805E23F4805383
:1034C000CCF80030DCF8003023F42043CCF8003096
:1034D0001388DCF8007047EA0333CCF80030034669
:1034E00053F81C7F27F440771F6057881C683D0203
:1034F0000C266FF470472C431C601C683C401C6019
:10350000D4881D68B4402C431C60DCF8003043EACA
:103510000E03CCF80030032988BFF0BD9288DFE8A5
:1035200001F00205080E50F8181F04E050F8181FAB
:1035300007E050F81C1F21F00C01016005E050F875
:103540001C1F21F4406112020160016811430160F7
:10355000F0BD00BF032988BF7047DFE801F0020E0D
:10356000050B50F8181F01E050F81C1F21F00C014A
:10357000016008E050F81C1F01E050F8181F21F40A
:10358000406112020160016811430160704700BF91
:1035900003298EBF002000EB8100406B704700BF05
:1035A00070B514885688B4FA84F34FF0010E5B09A5
:1035B000012E08BF4FF0020E056A00294FEA430CA6
:1035C0004FD025F010010162016A21F0A0010162D3
:1035D000016A41EA04110162014651F8183F23F4DF
:1035E00040730B600B6843EA06230B600B6823F4FF
:1035F00070430B60D3880C6844EA03340C60046A9F
:1036000044F01004046292880C6824F440640C6056
:103610000C6844EA02240C60046A24F00104046289
:10362000046A24F00A040462046A44EA0C0606628E
:103630000E6826F003060E600E6846EA0E060E605F
:103640000E6826F0F0060E600E6846EA03130B6063
:10365000036A43F001030362086820F00C0008606D
:103660004CE025F001010162016A21F00A010162CA
:10367000016A21430162014651F8183F23F0030318
:103680000B600B6833430B600B6823F0F0030B6097
:10369000D3880C6844EA03140C60046A44F0010403
:1036A000046292880C6824F00C040C600C681443CB
:1036B0000C60046A120224F010040462046A24F00C
:1036C000A0040462046A44EA0C1606620E6826F43A
:1036D00040760E600E6846EA0E260E600E6826F4EE
:1036E00070460E600E6846EA03330B60036A43F0CF
:1036F00010030362086820F4406008600868104303
:10370000086070BD012907D0002918BF70474168C3
:1037100041F0800141607047416821F080014160C3
:10372000704700BF826822F0700282608268114395
:1037300081607047426822F0700242604268114323
:1037400041607047826822F00702826082681143FC
:1037500081607047012907D0002918BF7047816830
:1037600041F0800181607047816821F080018160B3
:10377000704700BFD0F808C011432CF43F4CC0F88C
:1037800008C0D0F808C041EA0C018160816841EAB4
:1037900003218160704700BFD0F808C042EA0312DD
:1037A0002CF0070CC0F808C0D0F808C041EA0C01A2
:1037B0008160D0F818C040F203312CEA0101816128
:1037C000D0F818C040F2011141EA0C018161016A90
:1037D00021F00A010162016A21F0A0010162016A7F
:1037E00011430162704700BF816821F007018160C9
:1037F000704700BF826822F07002826082681143C5
:103800008160816821F007018160816841F00701D2
:1038100081607047F0B5066A602911D126F0100664
:103820000662066A120126F0A006066210244FF016
:103830000C0C6FF4704E4FF480756FF440760EE010
:1038400026F001060662066A4FF0040C26F00A060E
:1038500006626FF0F00E01256FF003060124076A7F
:1038600003FA0CF33A430262826932408261826950
:103870002A438261826902EA0E02826182691A43E6
:103880008261026A22430262826822F070028260D0
:10389000826811438160816821F00701816081683D
:1038A00041F007018160F0BDD0F808C011432CF44D
:1038B0003F4CC0F808C0D0F808C041EA0C01816054
:1038C000816841EA03218160816821F0770181608C
:1038D000816841F077018160704700BFD0F808C06F
:1038E00011432CF43F4CC0F808C0D0F808C041EA9E
:1038F0000C018160816841EA03218160816841F4A3
:1039000080418160704700BF816821F480418160FF
:10391000704700BF0165704710B543F60001C4F25F
:103920000101884209D044F20041C4F200018842FA
:1039300018BF10BD40F2114401E040F20E342046A1
:10394000FEF71AFE2046BDE81040FEF725BE00BF78
:10395000B0B5044643F60000C4F2010084420D46AF
:1039600007D044F20040C4F20000844205D1022096
:1039700000E00620FFF786F800E000202168090437
:1039800006D400EB5500B0FBF5F080B2E060B0BDAE
:10399000400000EB5500B0FBF5F04FF6F071014030
:1039A000C0F342000844E060B0BD00BF026822F0EE
:1039B00001020260026822F4C062026002681143E0
:1039C00001607047026822F001020260026822F47E
:1039D000805202600268114301607047026822F061
:1039E00001020260426822F4405242604268114380
:1039F00041607047016841F001010160704700BFFC
:103A0000016821F001010160704700BF026822F0E7
:103A1000080202600268114301607047026822F0E8
:103A20000402026002681143016070476FF35F2176
:103A300081627047406A6FF35F207047026801F44B
:103A4000002122F001020260426822F4002242605A
:103A500042681143416070470268072922F0010261
:103A6000026088BF7047DFE801F004090E13181DDB
:103A70002227416841F4802141607047416821F468
:103A8000802141607047416841F4003141607047D6
:103A9000416821F4003141607047416841F4803150
:103AA00041607047416821F480314160704741684E
:103AB00041F4004141607047416821F40041416098
:103AC000704700BF016821F001010160816821F4A5
:103AD00080518160704700BF016821F001010160E1
:103AE000816841F480518160704700BF026822F014
:103AF00001020260026822F400420260026811437F
:103B000001607047026822F001020260826822F4BC
:103B1000006282608268114381607047416841F4AD
:103B200080114160704700BF416821F480114160FD
:103B3000704700BF426822F4C002426042681143ED
:103B400041607047016841F400510160704700BF57
:103B5000016821F400510160704700BF026822F043
:103B600001020260026822F40062026002681143EE
:103B700001607047026801F0100122F0010202604A
:103B8000426822F01002426042681143416070476F
:103B9000026822F001020260426822F07F42426025
:103BA000426842EA01614160704700BF416841F4E8
:103BB00000014160704700BF416821F4000141608D
:103BC000704700BF426902F07F424261426911437F
:103BD00041617047016821F001010160416841F4D1
:103BE00080414160704700BF016821F00101016020
:103BF000416821F480414160704700BF026801F0D4
:103C0000200122F0010202604268114341607047C6
:103C1000016821F001010160816841F008018160C3
:103C2000704700BF016821F001010160816821F047
:103C300008018160704700BF016821F00101016047
:103C4000416841F400614160704700BF016821F0A4
:103C500001010160416821F400614160704700BFCB
:103C6000D0F800C001F480712CF0010CC0F800C045
:103C7000D0F804C002F400722CF4E06CC0F804C068
:103C8000D0F804C041EA0C01416041681143416031
:103C9000416803F48062114341607047016821F07C
:103CA00001010160816841F020018160704700BF1F
:103CB000016821F001010160816821F0200181602B
:103CC000704700BF016821F001010160816841F087
:103CD00010018160704700BF016821F0010101609F
:103CE000816821F010018160704700BF02680902FD
:103CF00022F001020260026989B222F47F4202616D
:103D00000269114301617047426922F07F424261BA
:103D1000426942EA01614161704700BF026801F0F7
:103D2000070122F001020260826822F460228260B0
:103D3000826842EA41418160704700BF016821F01A
:103D400001010160816841F002018160704700BF9C
:103D5000016821F001010160816821F002018160A8
:103D6000704700BF026801F0040122F00102026006
:103D70008268114381607047026822F0010202608C
:103D8000026922F0FF02026102691143016170477A
:103D9000026822F001020260826822F4807282606E
:103DA0008268114381607047026822F0010202605C
:103DB000826822F4007282608268114381607047D9
:103DC000016821F001010160816841F48041816056
:103DD000704700BF016821F001010160816821F492
:103DE00080418160704700BF026801F01F0122F02E
:103DF00001020260026822F078720260026842EA00
:103E000041510160704700BF026801F01F0122F0BC
:103E100001020260026822F4F8120260026842EABB
:103E200001410160704700BF026801F4004122F0C7
:103E300001020260826822F40042826082681143BB
:103E400081607047826822F040028260826811437C
:103E500081607047826822F080028260826811432C
:103E600081607047016821F001010160816841F4BF
:103E700000518160704700BF016821F001010160BD
:103E8000816821F400518160704700BF016841F0F2
:103E900002010160704700BF016821F0020101606A
:103EA000704700BF026801F4401122F00102026075
:103EB000826822F4401282608268114381607047F8
:103EC0008A09105801F01F01C84000F00100704736
:103ED00001F01F010122036A02FA01F11943016294
:103EE000704700BF01F01F02C1F389114FF0010CB0
:103EF0000B580CFA02F21A430A50704701F01F02E5
:103F0000C1F389114FF0010C0B580CFA02F223EAAD
:103F100002020A50704700BF8269114381617047F5
:103F2000C1F3891252F800C08A0D105801F01F0326
:103F3000C1F30441C8402CFA03F1084000F001002D
:103F4000704700BFC1F304410122036A02FA01F184
:103F5000194301627047000009488047094800473B
:103F6000FEE7FEE7FEE7FEE7FEE7FEE7FEE7FEE729
:103F7000FEE7FEE704480549054A064B7047000086
:103F8000993F00086901000830020020300A002033
:103F9000300600203006002041F20400C4F2020086
:103FA00050F8041C41F0010140F8041C50F8041CB6
:103FB0008907FBD501680C22C0F6FF0211400160A1
:103FC00002684FF6FF71CFF2C0710A4002600268CA
:103FD0004FF6FF7322F44002026050F8042CCFF633
:103FE000F2631A4040F8042C826A40F2431322F034
:103FF0000F028262C26A01F500319A43C262026B0B
:1040000022F001020263002242600268026002683C
:10401000026002680260026811400160016841F0BC
:10402000006141F48021016050F8041C41F080716E
:1040300040F8041C50F8041C8901FBD5016821F0EC
:1040400003010160016841F0020101600168090794
:10405000FCD5704741F20400C4F20200016801F08F
:104060000C01082941F20021C0F27A011AD1D0F8DE
:1040700000C0036802681B014FF0110358BF022300
:10408000D203CCF383421A4405D440F60011C0F2A7
:104090003D01514306E0836A03F00F030133B1FB96
:1040A000F3F1514340F21802C2F2000211600068BD
:1040B00004A1C0F30310085C116821FA00F010603D
:1040C000704700BF00000000000000000102030470
:1040D000060708090FB4044910B503AA029800F0B6
:1040E00087F910BC5DF814FBE40000202DE9F041D5
:1040F0000E460446002020622046E168884730B31F
:10410000252805D0D4E901219047206A401CF2E718
:10411000E168204600278847050018D0A5F1410036
:10412000192802D820354FF4006732462946204628
:104130002760FCF753F840B1012804D0F61D26F0A3
:1041400007060836D8E7361DD6E72846DAE7206A9C
:10415000BDE8F0812DE9F04106460024106875297C
:10416000314616A510D0AFF30080002802DA404295
:1041700013A507E031688A0701D512A502E04907B7
:1041800004D511A5012401E0AFF3008000210A222B
:1041900006F1240709E0B0FBF2FCB0FBF2F302FBEE
:1041A0001C00303078541846491C0028F3D12346AF
:1041B0002A463046BDE8F04100F0C1B800000000DA
:1041C0002D0000002B000000200000000FB400B5FF
:1041D00089B00BA86A46009003480A9900F028F9B4
:1041E00009B05DF814FB0000900000202DE9FF5F8E
:1041F0001D464FF0FF3B91464FF000085F46D5E962
:104200000146A96901987F1C8847296A8246884728
:104210000028F6D1BAF1FF3F0CD0002E24F4C06480
:1042200019DD600614D5BAF12B0F09D0BAF12D0FA4
:104230000ED103E0584604B0BDE8F09F44F480641A
:10424000A96901987F1C8847761E8246002E02DDF0
:10425000BAF1300F03D0B9F1000F26D032E0A969CE
:10426000761E01987F1C44F400748847002E824615
:1042700005DDBAF1780F06D0BAF1580F03D0B9F1C5
:10428000000F10D01EE0B9F1000F02D0B9F1100FED
:1042900018D1A969761E01987F1C24F40074884700
:1042A0008246102002E0082000E00A20814609E052
:1042B000A96908FB0908761E01987F1C44F4007464
:1042C00088478246002E05DD4946504600F0A2F898
:1042D0000028EDDAE96901988847A00502D46FF05B
:1042E0000100A8E7E00725D1600613D5600502D5D7
:1042F000C8F1000000E0404629680A1D2A600968EC
:10430000220501D5087015E0220701D5088011E0CB
:1043100008600FE02868011D29600068210502D5AA
:1043200080F8008006E0210702D5A0F8008001E0B7
:10433000C0F8008038467EE77047704770472DE927
:10434000F0470D4699469246044600F1240801685C
:10435000880604D5E06921F01001216000E0012009
:10436000A84201DD471B00E00027A1697A1902EB92
:104370000900081AA0612078C00602D42046AFF3D5
:104380000080002608E0D4E901211AF806009047D1
:10439000206A401C761C20624E45F4DB2078C00663
:1043A0000AD52046AFF3008006E0D4E90121302091
:1043B0009047206A401C2062381EA7F10107F4DCF8
:1043C00007E0D4E9012118F805009047206A401C55
:1043D0002062281EA5F10105F3DC2046AFF3008022
:1043E0002078000602D50220BDE8F0870120FBE717
:1043F000074B70B50D467B4400F02BF80446284669
:1044000000F074F810B14FF0FF3070BD204670BD61
:1044100027BEFFFF3A2800D2303820F02002412A80
:1044200001D3A2F13700884201D34FF0FF3070472B
:10443000034B7B449361034B7B44D36100F022B870
:1044400013BEFFFF6B00000001694A1C026108787F
:10445000704700B58FB0CDE90131002105910549C4
:104460007944CDE9031011466846FFF73FFE0FB0CF
:1044700000BD0000E5FFFFFF0268114413780160F2
:1044800018467047D160054979445161044979441F
:10449000116200211161114600F05AB8EDFFFFFFD3
:1044A000AD000000704710B54FF0FF34C1688A02BC
:1044B0000FD5036B42689A420BD1014690F8252034
:1044C000104600F0FFF9401C01D1204610BD00202D
:1044D00010BD11F0C00FF8D1026941689142F4D9C2
:1044E0000268491E521CC0E90021F0E7007B00F081
:1044F00080007047754600F013FAAE460500694625
:10450000534620F00700854618B020B5FFF732FD6E
:10451000BDE820404FF000064FF000074FF00008C4
:104520004FF0000BAC46ACE8C009ACE8C009ACE801
:10453000C009ACE8C00921F007018D46704710B5ED
:10454000044600F0F1F90068005D00F0010010BDC4
:104550002DE9F34F4FF0000A0C4656468DB001206E
:104560000C9001F10C000B9062690B9801219047AF
:10457000051E2DD0252D2CD0216A8847C0B1626937
:104580000B9801219047216A88470028F7D162697A
:10459000411E0B98904700E0761CA1690D98884752
:1045A000216A88470028F7D1E1690D988847DBE741
:1045B000A1690D988847A842074601D1761CD3E728
:1045C000E1690D9888477F1C02D1BAF1000F6FD0C6
:1045D0006BE162690B9800273D46394690472A28CF
:1045E00004D162690B98012190470125DFF8D08240
:1045F00062690B9801219047A0F130010A290AD283
:104600004745E5DC07EB870100EB4107303FDFD48E
:1046100045F01005ECE7E90601D46FF000476C287F
:104620000AD04C2814D0682815D06A280DD07428D8
:104630001CD07A281AD01DE062690B98012190479E
:104640006C2802D045F0040514E045F002050DE0A9
:1046500045F020050AE062690B980121904768281F
:1046600002D045F0080505E045F4006562690B9845
:1046700001219047C4E9015765283DD019DC58282D
:104680007AD00CDC452837D004DC252826D04128F8
:104690009ED131E046282FD0472899D12CE05B28C5
:1046A00077D0612828D063287CD0642823D15AE0B1
:1046B000F6E06F2848D008DC66281DD067281BD09C
:1046C000692821D06E2816D127E0702845D073289C
:1046D00068D0752847D078280DD14DE0A1690D9894
:1046E0008847252805463FF469AFE1690D9888475A
:1046F0006D1C3FF46AAFD8E00D9923466A466FF00F
:104700000100AFF30080C5E045F0400023464FF0C4
:1047100000026060A80736D43EE0E8077FF447AFA8
:104720002068011D21600068290501D506701BE77E
:10473000290701D5068017E7A90703D5F117C0E9B6
:10474000006111E706600FE745F0400023464FF097
:1047500008026060A80716D41EE040F60E0125EAA4
:104760000100606016E045F0400023464FF00A0269
:104770006060A80707D40FE045F040006060A8071C
:1047800008D5234610220D996FF00100AFF3008089
:1047900080E007E0102223460D996FF00100FFF73B
:1047A00025FD77E04FF0000963284F46C8464B4689
:1047B000CB4602D05B2806D038E0E80601D40120C1
:1047C000A060012732E06269D4F80CB00B98012197
:1047D00090475E2807D14FF0010949466269D4F835
:1047E0000CB00B989047216939B900210A4603ABF8
:1047F00043F82120491C0829FADBD8B3216949B3C1
:1048000008F1010862690B98012190475D28F4D1F5
:10481000B9F1000F09D0002003A951F82020D2439C
:1048200041F82020401C0828F7DB03AB2069002852
:1048300020794FEA40701ED05B462246CDF80080BA
:10484000CDE901970D9900286FF0010020DAAFF350
:1048500000801FE0C11703AA00EBD1614B1121F0CA
:104860001F0102EB8302411A1368012088400343B1
:104870001360C7E719E00D99224600286FF0010088
:10488000009702DAAFF3008004E0AFF3008001E0AC
:10489000AFF3008000280ADA401C06D10C9820B142
:1048A0004FF0FF300FB0BDE8F08F5046FAE7E90750
:1048B00001D10AF1010A064400200C9054E60000E0
:1048C000CCCCCC0CCA68431C0FD00D4B1A420CD177
:1048D000D3070AD081F825004B680B6300238B6057
:1048E00012F0C06F0B6003D004E04FF0FF30704750
:1048F00042F00072034B1A40034B1A43CA607047E0
:1049000080200800BFFFDFFF0010480010B50446FC
:10491000AFF300802046BDE81040FBF77ABC0000F2
:10492000004870473000002010B500F005F8001D69
:1049300010BD00BF8D0000000048704750000020EF
:104940004FF0013C50F8042B51F8043B9A4221D11E
:10495000A2EB0C03934313EACC1317D150F8042BAA
:1049600051F8043B9A4215D1A2EB0C03934313EA8E
:10497000CC130BD150F8042B51F8043B9A4209D1C7
:10498000A2EB0C03934313EACC13DBD04FF00000EF
:10499000704700BFD01A01BAB1FA81F101F01801D5
:1049A00022FA01F0CB40DBB2C0B2C01AC1F1200143
:1049B0002CFA01F3D11A914311EAC311E6D17047E1
:1049C00010B500290AD00878002807D00548784497
:1049D000FFF7B6FF002801D0002010BD0248784440
:1049E00010BD0000B20B0000AA0B000021F0004235
:1049F00001F00043A2F16052B2F5801F28BFD2F14E
:104A00007F6C0BD95FEA001C43EAC20242EB507094
:104A100018BF704728BF20F001007047B2F5801F13
:104A2000BCBF184670474FEA410C1CF5001F02D26C
:104A3000084600F082BD70B500F086F900000089DC
:104A4000FFF7F6BF4FF00040A0F580007047000070
:104A500010B591EA030F48BF83F0004300F1D08105
:104A6000841A71EB030C05D2121943EB0C03001BE3
:104A700061EB0C014FEA1154A4EB135CDFF81CE16D
:104A80001EEA430F18BF9EEA445F00F0748021EADB
:104A9000045123EA0E0343F48013DCF1200E32D3D9
:104AA00022FA0CFE10EB0E0023FA0CFE41EB0E0175
:104AB000CCF1200E03FA0EFE10EB0E00CCF1200E0E
:104AC00051F10001B1F5801F32D201EB045112FA0D
:104AD0000EF2BDE8104058BF7047401C38BF5FEA77
:104AE000420218BF7047002814BF20F0010041F1B6
:104AF00000014FEA410313F5001F38BF7047A1F1D1
:104B0000C04100F06FB9012A43EB0302ACF1200C65
:104B1000DCF11F0E32BF4FF0000E23FA0CF310EB46
:104B2000030041EB0451B4EB115FD0D0A1EB045171
:104B300001F58011490801EB04515FEA30000ED302
:104B400050F1000038BF12FA0EFE08D1BDE8104047
:104B5000C9E7401C38BF5FEA4202CAD1C3E7BDE8DB
:104B600010404FEA410313F5001F38BF7047A1F111
:104B7000C04100F037B99EEA445F08D011EA5E0FE9
:104B8000BDE8104004BF01F0004100207047BDE8BF
:104B9000104070B500F0D8F864FBBE3E0000E0FFA6
:104BA00010F0004248BF4042B0FA80F310FA03F11F
:104BB0000AD0C3F11D0303F5806302EB03524FEAF1
:104BC000415002EBD12170474FF000007047B0FA1E
:104BD00080F310FA03F10AD0C3F11D0303F58063DB
:104BE0004FEA03524FEA415002EBD12170474FF098
:104BF0000000704770B5DFF848C11CEA111E1EBFE7
:104C00001CEA13159EEA0C0F95EA0C0F00F06F805A
:104C100081EA03044EEAD47EAE4421EA4C1123EA31
:104C20004C1341F4801143F48013AEF17F7EA1FB5D
:104C3000024CA0FB0365361955EB0C05A1FB034C98
:104C40004CF10003A0FB021C16EB0C06654153F16E
:104C50000003094218BF46F0010613F4007F0BD190
:104C60004FEA03314FEA053041EA155140EA165048
:104C700034036FF003020AE04FEAC3214FEAC52074
:104C800041EA555140EA5650F4026FF0020202EB3D
:104C90002E4201EB025585EACE710AD05FEA440C40
:104CA00018BF24F0004450F1000041F1000120EA57
:104CB000D47040F2FE7C624500D270BDA84214BFA1
:104CC0004FF080444FF04044002E08BF0024BEF156
:104CD000806FA8BFA1F1C041BDE8704080F2828022
:104CE00001F1C04101F000414FF0000070470CEAB3
:104CF00013159EEA0C0F18BF95EA0C0F06D081EA37
:104D0000030E4FF000000EF0004170BD00F01CF8E3
:104D10008900013E00F007B800F009B84FEA430CE3
:104D20005FEA5C5C08D081EA030100F05BB84FEAFF
:104D3000410C5FEA5C5CF6D102494FF0000070471D
:104D40000000FF070000F87F0EF1020E2EF0030EA8
:104D50005EF8046B364205D4012A43EB030515F5D2
:104D6000001F12D8012841EB010C1CF5001F0CD8C4
:104D70000ED14FEAD17C0CEB4C0C0CF1020C15F56A
:104D8000001F08BF4CEBD37C04E04FF0080C01E09F
:104D90004FEAD37C0CEB4C0526FA05F606F0070625
:104DA000B6F1040C06D20EEB860CBDE870404CF058
:104DB000010C6047DFE80CF0090B02024FF00041E4
:104DC000A1F500214FF0000070BD194610460128E2
:104DD00051EB010418BFD4F5001484BF002001F08A
:104DE000004170BD0808A0F500114FEA310170477D
:104DF00010B591EA030F48BF83F000433FF530AE92
:104E0000841A71EB030C07D28CF0004C121943EB9F
:104E10000C03001B61EB0C014FEA1154A4EB135C73
:104E2000DFF8A4E11EEA430F18BF9EEA445F00F0DA
:104E3000B48021EA045123EA6E035242C3EB6E03AD
:104E400038BF5B1EDCF1200E25D322FA0CFE10EBDE
:104E50000E0043FA0CFE41EB0E01CCF1200E03FADA
:104E60000EFE10EB0E00CCF1200E51F1000129D402
:104E700001EB045112FA0EF2BDE8104058BF704722
:104E8000401C1CBFB2F1004F704700280CBF491CEA
:104E900020F00100704712EB020E43EB030218BF33
:104EA0004FF0010E4EEA4202ACF1200CDCF11E0E76
:104EB00056D943FA0CFE10EB0E00CCF11E0E51F148
:104EC000FF31D5D50EF1010E12FA0EFE404141EB35
:104ED000010101EB445C5FEA5C5C10D901EB045119
:104EE00010EBDE7038BFBEF1004FBDE8104018BFB8
:104EF000704700280CBF491C20F00100704734D2D5
:104F00004FEAD42C24F4006411F500111BD0B1FA3F
:104F100081F20B3AA41AA41ED2F12003914030FA78
:104F200003F31943904001EBCC7101EB0451002CC9
:104F3000BDE81040A8BF704701F1C04101F0004139
:104F40004FF000007047B0FA80F310FA03F102D17D
:104F5000BDE810407047E41A173C4805C90AE2E76B
:104F600001EB0451BDE81040704749104FEA300092
:104F700001EB0451BDE8104002E04FF00001704722
:104F80004A0008BF0042F8D0B2F5001F28BF7047A2
:104F900001F000414FF0000070479EEA445F07D0E7
:104FA00011EA5E0FBDE8104004BF002100207047E9
:104FB000BDE8104070B5FFF7C7FE00BF40DFF63E0A
:104FC000104683F0004170470000E0FF43004FEAC5
:104FD000D30C4FEA3C0C43401FBF40070CF160511B
:104FE00013F0FE4F70471CF0006F03D10CF000412E
:104FF000002070470CF0004343EA507040EACC00B8
:1050000010B500F054FA00BF000000924FEA000112
:10501000FFF7E8BE4FF00041A1F500214FF000007E
:10502000704710B500F0F6F80CBF0120002010BD4D
:1050300010B500F0EFF814BF0120002010BD10B52E
:1050400000F04CF98CBF0120002010BD10B500F01D
:1050500045F92CBF0120002010BD10B500F072F9F9
:1050600094BF0120002010BD10B500F06BF934BFD3
:105070000120002010BD401058BFC0F14040491031
:1050800058BFC1F140418142EFF3008070470000FA
:105090004FF47F0C1CEAD0121EBF1CEAD11392EA17
:1050A0000C0F93EA0C0F00F0858090EA010F48BFC7
:1050B00042F4807240F4000C41F400002CF07F4177
:1050C00020F07F4000B5A2EB030281420FF2081CE2
:1050D000ACEB504E9EF800E0C0F100004FEA4E0EDF
:1050E00000FB0EFC38BF49004FEA2C1C0CFB0EF3F2
:1050F0004FEACE1E0EEB635E4FEA112C0EFB0CFC4A
:105100004FEAC1214FEA1C5300FB031102F5FA02DA
:105110004FEA112C0EFB0CFC4FEA01314FEADC4C3C
:1051200000FB0C1142EB2242C14228BF09184CEB94
:1051300003335DF804EB10EB410143EBC250B2F5D1
:105140007C0F38BF704729D512F0F00F1CBF00F15B
:10515000C04000F0004070470081828384858687CC
:1051600088898B8C8D8E8F919293959697999A9C26
:105170009D9FA0A2A3A5A7A8AAACAEB0B2B3B5B795
:10518000B9BCBEC0C2C5C7C9CCCED1D4D7D9DCDF6B
:10519000E2E6E9ECF0F3F7FAFE0000004FEA400C1B
:1051A0000CF1807CBCF17E4F28BF7047B0F1C0404D
:1051B00000F0C3B90CEAD11390EA010F48BF42F4E2
:1051C0008072624538BF634507D213F47F0F16D053
:1051D00080EA010000F00040704710B500F067F968
:1051E000097EFC3E00F005B880EA010000F00040B6
:1051F000704780EA010000F0004000F09EB912F410
:105200007F0F04BF0248704780EA010000F095B9A3
:105210000000C07F50EA010C00F113801CF5000F64
:1052200058BFBCF5000F01D48842704707D710F56E
:10523000000F58BF11F5000F15D4884270478942FE
:1052400070471CF5000F04D5BCF5000FF7D581425F
:1052500070474FF0807C1CEB400F38BF1CEB410FB8
:1052600001D28142704710B500F021F99224490023
:105270004FF000504FF08051FFF7FDBE41000B0E84
:10528000D3F19E0208D950F400034FEA032323FA16
:1052900002F048BF4042704710B500F008F900BF67
:1052A00049922480002070476FF0004282EA20007B
:1052B00070470000B0FA80F310FA03F2C3F19D03C7
:1052C0000AD0D90501EB1220530638BF704700F110
:1052D000010008BF20F001007047000050EA010CF7
:1052E00000F113801CF5000F58BFBCF5000F01D46E
:1052F0008842704707D710F5000F58BF11F5000F0F
:1053000015D488427047894270471CF5000F04D5B8
:10531000BCF5000FF7D5814270474FF0807C1CEB45
:10532000400F38BF1CEB410F01D28142704710B5CE
:1053300000F0BDF8922449004FF080504FF000512A
:10534000FFF799BE50EA010C00F113801CF5000F25
:1053500058BFBCF5000F01D48842704707D710F53D
:10536000000F58BF11F5000F15D4884270478942CD
:1053700070471CF5000F04D5BCF5000FF7D581422E
:1053800070474FF0807C1CEB400F38BF1CEB410F87
:1053900001D28142704710B500F089F8922449008B
:1053A0004FF000504FF08051FFF765BE4FF47F0C77
:1053B0001CEAD0121EBF1CEAD11392EA0C0F93EA2A
:1053C0000C0F00F0478090EA010F48BF42F4807252
:1053D0004FF0004C4CEA00204CEA012102EB0302A2
:1053E000A0FB0113A2F50002002918BF43F001033E
:1053F0005B0028BF4FEA330342EB22425FEA132CE3
:105400004CEBC2502EBFBCEB436FB2F57C0F704724
:105410004FEA036CBCF1004F08BF20F00100B2F569
:105420007C0F38BF70470BD582F0FF0212F5803F2A
:10543000C8BF704700F1C040D8BF00F000407047BF
:1054400000F5000C5FEA4C0C48BF7047B0F1C0405B
:1054500000F073B80CEAD11390EA010F48BF42F490
:105460008072624538BF634504D280EA010000F0D3
:105470000040704710B500F01AF800BF8900013EE7
:1054800000F007B800F009B85FEA410C5FEA1C6C55
:1054900008D080EA010000F050B85FEA400C5FEAF3
:1054A0001C6CF6D14FF00040A0F5800070470EF163
:1054B000020E2EF0030E5EF8044B244204D44FEA91
:1054C0004102B2F17F4F11D84FEA4003B3F17F4F51
:1054D0000CD80ED14FEAD07C0CEB4C0C0CF1020C2A
:1054E000B2F17F4F08BF4CEBD17C04E04FF0080CC9
:1054F00001E04FEAD17C0CEB4C0324FA03F404F0F6
:105500000704B4F1040C06D20EEB840CBDE8104085
:105510004CF0010C6047DFE80CF0070802024FF086
:105520000040A0F5800010BD0846420018BFD2F12F
:10553000807288BF00F0004010BDFF2141EAD050CA
:10554000C0057047110A120A130A140A110A160A32
:10555000000000000102030400030504010206002C
:10556000905600080000002030000000A401000850
:10557000C056000830000020000A0000C0010008EA
:105580001001000043000000F8FFFFFF0040404012
:105590004040404040404141414141404040404006
:1055A00040404040404040404040404040050202B2
:1055B0000202020202020202020202020220202071
:1055C00020202020202020020202020202029090CD
:1055D00090909090101010101010101010101010CB
:1055E000101010101010101002020202020288881F
:1055F000888888880808080808080808080808082B
:105600000808080808080808020202024000000012
:10561000000000000000000000000000000000008A
:10562000000000000000000000000000000000007A
:10563000000000000000000000000000000000006A
:10564000000000000000000000000000000000005A
:10565000000000000000000000000000000000004A
:10566000000000000000000000000000000000003A
:10567000000000000000000000000000000000002A
:10568000000000000000000000000000000000001A
:10569000000800000004004802000000000000486C
:1056A000004000000008004800A24A040000204218
:1056B0000100FFFFFFFFD007010000000000000015
:040000050800016985
:00000001FF
