:020000040800F2
:1000000010050020B53E000825140008291400083A
:100010002D140008311400083514000800000000F9
:10002000000000000000000000000000391400087B
:100030003D140008000000004114000801130008EE
:10004000CF3E0008CF3E0008CF3E0008CF3E00085C
:10005000CF3E0008CF3E0008CF3E0008CF3E00084C
:10006000CF3E00089D130008BD130008DD130008F3
:10007000CF3E000881130008CF3E0008CF3E0008A5
:10008000CF3E0008CF3E000800000000211300080A
:10009000CF3E0008CF3E0008CF3E0008CF3E00080C
:1000A000CF3E0008CF3E0008CF3E0008CF3E0008FC
:1000B000CF3E000800000000CF3E00080000000016
:1000C000CF3E000800000000CF3E0008CF3E0008F1
:1000D000CF3E0008CF3E0008CF3E000800000000E1
:1000E0000000000000000000CF3E0008CF3E0008E6
:1000F000CF3E0008CF3E0008CF3E0008CF3E0008AC
:10010000CF3E00080000000000000000CF3E0008C5
:1001100000000000000000000000000000000000DF
:1001200000000000000000000000000000000000CF
:1001300000000000000000000000000000000000BF
:1001400000000000000000000000000000000000AF
:100150000000000000000000CF3E0008CF3E000875
:10016000CF3E0008CF3E0008DFF80CD004F03AFB89
:10017000004800477D0100081005002086B003F00C
:1001800009FF40F20000C2F20000006848F21F516F
:10019000C5F2EB11A0FB01014FF0FF3000EB511154
:1001A0000020B0EB116F0DD14EF21002CEF2000222
:1001B00051604EF62351CEF20001F0230B70906097
:1001C0000720106000F0CCFC08B900BFFEE700F08B
:1001D000C3FC00F0E1FC00F00DFD4FF09040402129
:1001E000012202F00BF800F0BFFF00F047FF00F023
:1001F0008BFE01F02DFF01F01DF840F236060824B9
:10020000C2F200060A20347065B201F0FDF8002D3C
:10021000A4F10104F6DC002100200390317000BF3E
:100220004FF09040202101F0F1FF10B101F010FFDC
:10023000F6E740F6000840F2000A4FF6184440F294
:100240003609C4F60008CCF27A4ACFF6FF744FF4B0
:100250007A770020C2F20009049000BF40F2BC028D
:10026000C2F2000210680130C107106008BF01F03F
:100270001FF940F2B000C2F2000006683046002EBE
:1002800048BF704204F084F904F0C7F9002300224B
:10029000CBF6E0734FF0000B04F02BF844F20003B0
:1002A0000022C4F28F0304F096F800230022C3F664
:1002B000F07303F077FF04F0C3F906F1310163290D
:1002C000054609D316F57A7FD8BF2646B6F57A7F5C
:1002D000A8BF3E46C6F1000B40F2B800C2F20000D3
:1002E000006800F13101632902D200200EE000BF56
:1002F00010F57A7FD8BF2046B0F57A7FA8BF384680
:1003000004F046F90146284603F0DCFE04F06CF9DF
:1003100004F03EF90146504603F0CEFE0025C4F23B
:100320003435294603F0CEFE0021C4F2FA4103F031
:10033000FBFE294603F06EFE064604F055F944F62E
:100340006401C0F6000151F8205000213046C4F28B
:10035000B42104F0BDF81BF57A7FD8BFA34606464A
:10036000BBF57A7FA8BFBB46584604F011F9014699
:10037000E6B12846CDF814B003F0A4FE5146054678
:1003800004F0A6F80024C4F27A4400281CBF00251B
:10039000CCF27A452846214604F09AF8002808BF96
:1003A0002546284604F020F983461AE008462946E7
:1003B00003F0BAFE5146054604F08AF80024C4F260
:1003C0007A4400281CBF0025CCF27A4528462146F5
:1003D00004F07EF8002808BF2546284604F004F9FA
:1003E000059008F54060102101F010FF804600F0F4
:1003F000EBF940F21000049EC2F200000578F7B25B
:10040000022F08D0012F0BD0039CB7B940F23C005B
:10041000C2F2000008E040F2AC00C2F2000003E0CB
:1004200040F20400C2F2000000680021C4F2C821BA
:1004300003F048FE04F0D8F8044688F00100284391
:10044000C0B2B0FA80F0450905980FFA80FA50461C
:1004500000F0C0F9CBF10000039424B200B22946A9
:10046000002243460097019401F03EF90136F0B2B4
:10047000022840F20400C2F20000076840F20001C6
:100480003846C4F2C41188BF002604F013F804965D
:1004900090BB444640F60008C4F6000840464FF4BE
:1004A0000041012201F0AAFE40464FF40051002213
:1004B00001F0A4FE40464FF48041002201F09EFE70
:1004C00040F20800C2F20000007840F2B001C2F22F
:1004D000000101380968B0FA80F0400911F1320FCB
:1004E0004FF00001B8BF012110EA010528461CBFEA
:1004F000052004255DE000BF384604F08EF841F683
:1005000099134FF09932C4F237030546894604F037
:1005100009F8C8B900213846C4F2C41103F0E6FF57
:1005200090B9444640F60008C4F6000840464FF42F
:100530000041012201F062FE40464FF400510122C9
:1005400001F05CFE08252FE04BF233332846494684
:100550004FF03332C4F23503444603F0E3FF002882
:1005600073D141F69913284649464FF09932C4F2A7
:10057000370303F0F2FF002867D140F60008C4F605
:10058000000840464FF40041002201F037FE40468B
:100590004FF400510122012501F030FE40464FF496
:1005A0008041002201F02AFE40F236090520C2F205
:1005B000000989F8000040F23700C2F2000005701F
:1005C0004FF09040202101F021FEB8BB059880EA51
:1005D000EA30A0EBEA3080B2322801D9002011E0E5
:1005E0000FFA8BF08BEAE031A1EBE03080B23228D9
:1005F0004FF0000006D82CB140F29000C2F200008B
:100600000068013043F68101C0F20101884240F2E6
:10061000900140F2000A4FF61844C2F20001CCF2F9
:100620007A4ACFF6FF744FF47A7708600DD205202E
:1006300000F0EAFE01F00CFD10E600BF4FF0904024
:10064000202101F0E3FD0028F8D100F053F800BFAD
:10065000B0B540F60004B0F5804FC4F600040DD1EB
:1006600020464FF40041012201F0C8FD20464FF41E
:1006700000510122BDE8B04001F0C0BD0546A0F523
:100680000040B0FA80F0420920464FF4004101F0EA
:10069000B5FDA5F50050B0FA80F0420920464FF4B0
:1006A000005101F0ABFD20464FF480410022BDE82F
:1006B000B04001F0A3BD00BF40F2B001C2F20001A2
:1006C00001380968B0FA80F04009002211F1320FB8
:1006D000B8BF01221040014640F236021CBF05217E
:1006E0000420C2F20002117040F23701C2F2000190
:1006F0000870704782B040F2370040F23605C2F20F
:1007000000000024C2F20005047000BF0A202C7013
:1007100000F07AFE0134082CF8D1002400200021DA
:10072000012200232C700094019400F0DDFF44F2BC
:100730000040C4F2000003F09DF8002000F044F8EF
:10074000002000F047F84FF090404021002201F0D7
:1007500055FD00BF01F07CFCFCE7000080B5DDF832
:1007600008C0A1F1010EBEF1050F0AD80FF2040175
:10077000DFE80EF0030D10141B2200211160186039
:100780001DE0002010601860CCF8000080BD4142E0
:1007900011600CE041421160002102E00021116073
:1007A00041421960CCF8000080BD106040421860E2
:1007B0000020CCF8000080BD00211060196040428C
:1007C000CCF8000080BD00BF40F23001C2F2000151
:1007D000087070474FF61841CFF6FF7110F57A7F19
:1007E000C8BF014640F23200C2F20000B1F57A7F84
:1007F000A8BF4FF47A710180704700BF2DE9F04F18
:1008000081B040F2A800C2F20000B0F90010B1F5CA
:100810007A7F14DA40F22C0240F20E03C2F2000298
:10082000C2F200035288B3F9007001310180B81898
:1008300000EBD0704008188001B0BDE8F08F40F2A6
:10084000380AC2F2000ABAF8004045F6294060436F
:1008500081B2890841EA803080B2000940F22C0858
:100860002828C2F2000834D840F2040BC2F2000B70
:10087000DBF8000003F0D1FE8146B8F800000D4619
:1008800003F0A5FE4CF20003C3F69873002203F0B8
:1008900030FD4AF6FC1246F24D23CDF2F122C3F6AA
:1008A000507303F026FD48F22B724FF2CE730646CA
:1008B0000F46CDF61612C3F6EF734846294603F0ED
:1008C00018FD32463B4603F06DFC03F0B9FECBF851
:1008D000000040F23600C2F20000007840F200450D
:1008E000C4F60005611CAAF80010A8B141F25972C3
:1008F00089B2CDF2B712A1FB022340F23702C2F255
:10090000000212781F0B0132B7FBF2F77A43C2EBF9
:100910001332002A00F09780002228464FF480719D
:1009200001F06CFC40F20E01C2F20001B8F80200C6
:10093000B1F9001042F60049401AC4F2010903F06F
:1009400035FE48F23F024CF69C13C9F6C912C3F6B5
:10095000C97303F0CEFC03F073FE40F23C0120F0BB
:100960000040C2F2000108600021C4F2701103F0DF
:10097000CBFD80B940F23000C2F20000007850B1E7
:1009800040F21000C2F200000078012803D048466F
:1009900002F084FA02E0484602F086FA2846012175
:1009A00001F034FC40F28D04C2F2000420702846AD
:1009B000202101F02BFC40F28E06C2F200063070BE
:1009C0002846102101F022FC40F28F01C2F2000102
:1009D00008702178327801EB800040F28C0100EB46
:1009E0004200C2F20001087044F65A0140F2880247
:1009F000C0B2C0F60001C2F2000240F23203095C4C
:100A00001068C2F2000340F2AA08B3F90030C2F243
:100A10000008A0EB203088F80010184440F234039E
:100A200001391060020BC2F2000305291A801BD89D
:100A300040F30F30DFE801F0031C20222529074690
:100A40004042002624E0B1FBF0F202FB1010002827
:100A50007FF468AF40F23A00C2F200000178B1FAC8
:100A600081F14A09027058E70026002700200FE0B4
:100A70004642074600200BE0464208E04742002677
:100A800006E047420646002002E0064640420027B4
:100A90004FF6A535CFF6FF752946A842C8BF0146D7
:100AA00040F25B4401F26542A04248464FF0020129
:100AB000C8BF4FF40C6202F057FB2846AF42C8BFD4
:100AC000384600F2654248460121A742C8BF4FF4AC
:100AD0000C6202F049FBAE42C8BF354605F26542E2
:100AE00048460021A642C8BF4FF40C6202F03CFB0E
:100AF00040F2B406C2F20006306840F294044109A4
:100B00007C299CBF01303060C2F20004217898F843
:100B100000503068012912D0012D10D103F041FDA1
:100B200001464FF6EC10C4F2F84003F0FDFA40F233
:100B3000AC01C2F2000108600020306008E0B0F5AE
:100B40007A6F05D340F2AC00C2F2000000210160D0
:100B5000257001B0BDE8F08F4FF4407001F0AABBE2
:100B600080B540F61D1001F0A9FD002818BF01F066
:100B7000B3FD40F6FF70022101F094FA012809D17B
:100B800040F6FF7001F074FA012803D101F068FA11
:100B9000012080BD002080BDB0B54FF4E16001F0C0
:100BA00059FC42F20004C4F20004204601F0B2FFF6
:100BB00040F2C405C2F2000500204FF4001148F6CF
:100BC000A042C5E9001028732046AA6002F088F808
:100BD0002046294602F008F813200021002201F0E7
:100BE00073FB2046012102F0E5F82046BDE8B04045
:100BF00002F064B8B0B540F2115001F02BFC40F2A5
:100C0000125001F027FC40F2135001F023FC40F297
:100C1000165001F01FFC40F20044C4F6000404F535
:100C200080652846012100224FF4004301F094FA28
:100C30002846002101224FF4004301F0B7FA28466C
:100C4000012100224FF4005301F086FA28460021CA
:100C500001224FF4005301F0A9FA28460121002295
:100C60004FF4804301F078FA2846002101224FF426
:100C7000804301F09BFA04F58055284601210022AB
:100C8000022301F069FA284600210122022301F023
:100C90008DFA284601210022012301F05DFA284641
:100CA00000210122012301F081FA204600210022C7
:100CB000012301F051FA204600210022202301F0F7
:100CC0004BFA204600210022102301F045FA4FF094
:100CD000904002210122042301F03EFA4FF090409F
:100CE00002210122082301F037FA4FF09040002141
:100CF0000322042301F05AFA4FF09040002103220E
:100D0000082301F053FA4FF090400121042201F032
:100D100091FA4FF090400121082201F08BFA4FF038
:100D2000904003210022012301F016FA4FF0904079
:100D300003210022022301F00FFA4FF0904003211B
:100D40000022402301F008FA20460321002201235B
:100D500001F002FA284602210022102301F0FCF9DA
:100D600028460221102201F065FA4FF0904002213E
:100D700000224FF4806301F0EFF94FF09040022120
:100D800000224FF4007301F0E7F94FF09040022188
:100D900000224FF4807301F0DFF920460221002287
:100DA0004FF4004301F0D8F92046022100224FF40D
:100DB000804301F0D1F92046022100224FF4005374
:100DC00001F0CAF94FF09040002100224FF48063F7
:100DD00001F0ECF94FF09040002100224FF4007335
:100DE00001F0E4F94FF09040002100224FF48073AD
:100DF00001F0DCF92046002100224FF4004301F00D
:100E0000D5F92046002100224FF4804301F0CEF9AD
:100E10002046002100224FF4005301F0C7F94FF0A3
:100E2000904002214FF4806201F004FA4FF09040AC
:100E300002214FF4007201F0FDF94FF090400221C1
:100E40004FF4807201F0F6F9204602214FF400427F
:100E500001F0F0F9204602214FF4804201F0EAF956
:100E6000204602214FF4005201F0E4F94FF0904087
:100E700001210022402301F06FF94FF09040002142
:100E80000122402301F092F9204602210122402351
:100E900001F062F9204602210122802301F05CF971
:100EA000204600210322402301F080F92046002142
:100EB0000322802301F07AF920460021402201F02C
:100EC000B9F920460021802201F0B4F92046012121
:100ED00000224FF4807301F03FF9204600210322E5
:100EE0004FF4807301F062F94FF09040002100222E
:100EF000202301F031F92846002101221023BDE80A
:100F0000B04001F029B900BF70B540F20B6001F0AC
:100F1000A1FA42F60044C4F20104204601F0FAFDB1
:100F200040F2FC05C2F2000500264FF4001040F626
:100F3000CA01C5E900062046A9602E7301F0D0FE63
:100F40002046294601F050FE20460221002202F0F0
:100F50002FF920460121002202F02AF92046002123
:100F6000002202F025F920460221002202F002F9B7
:100F700020460121002202F0FDF820460021002237
:100F800002F0F8F820460221702202F0CFF8204645
:100F90000121702202F0CAF820460021702202F0DE
:100FA000C5F820460221002202F0DEF82046012189
:100FB000002202F0D9F820460021002202F0D4F8E5
:100FC00040F2EC05C2F200054FF40020C5F806001F
:100FD0004FF00070C5F80A00204602212A4601F0B1
:100FE00091FF204601212A4601F08CFF2046002176
:100FF0002A4601F087FF40F2D401C2F200014FF40B
:1010000000603C22C1E9000601F108004FF4805362
:101010004FF4804564C020464B6101F021FF20461B
:1010200001F052FE20460221012202F049F9204639
:101030000121012202F044F920460021012202F0A0
:101040003FF920460221042202F060F920460121E6
:10105000042202F05BF920460021042202F056F936
:101060000D200021002201F02FF92046012101F07E
:10107000A1FE2046BDE8704001F020BEF0B581B071
:1010800040F2096001F0E6F94FF4A06001F0E2F9E6
:10109000032001F083FA0920012100220127002505
:1010A00001F012F9002000F025FE40F24001C2F2EA
:1010B000000140F22C00C2F2000001F10C0C4FF4D0
:1010C000806242F24C448CE825004FF440500223E9
:1010D000C4F20104086200204FF4807681E8D00059
:1010E000C1E9065300F02AFE002000F065FE002052
:1010F00000F086FE0020022100F074FF0020022193
:1011000000F0B2FE002000F087FE0120022100F076
:10111000F3FB00200421022200F018FC012006212C
:10112000022200F013FC002000F0D8FB0120012176
:1011300000F0B0FC01204FF4602100F0CFFC00F083
:101140005BFB00F06DFB00F0BDFD00F00BFB00F061
:1011500021FB00F033FB4FF48070012101B0BDE8AA
:10116000F04000F089BB00BFB0B540F2117001F053
:1011700071F94FF4A06001F06DF944F20044C4F23B
:10118000000420464FF4E13102F090FB204600219C
:10119000002502F0B9FB2046002102F0C1FB2046E9
:1011A000002102F0C9FB2046002102F04DFC204640
:1011B000082102F0D9FB2046042102F0DDFB204685
:1011C00002F0C6FB0B200221002201F07DF8042072
:1011D00000F090FD40F2640140F20C10C2F20001F8
:1011E000C2F200000122C1E902204FF4405004F194
:1011F000240308620420C1E90035C1E90455C1E9AE
:10120000065200F09BFD042000F0D6FD042000F003
:10121000F7FD2046402102F0C3FD0420022100F02A
:10122000E1FE0420012100F01FFE0420BDE8B040D3
:1012300000F0F2BDB0B540F20E6001F00BF94FF4D2
:10124000A06001F007F943F60004C4F2010420464F
:101250004FF4964102F02AFB20460021002502F0BF
:1012600053FB2046002102F05BFB2046002102F0E8
:1012700063FB2046002102F0E7FB2046082102F034
:1012800073FB2046042102F077FB204602F060FB4E
:101290000A200221002201F017F8022000F02AFDA6
:1012A00040F2640140F20D10C2F20001C2F20000EF
:1012B0000122C1E902204FF4405004F124030862E6
:1012C0000220C1E90035C1E90455C1E9065200F028
:1012D00035FD022000F070FD022000F091FD204657
:1012E000402102F05DFD0220022100F07BFE022081
:1012F000012100F0B9FD0220BDE8B04000F08CBD36
:1013000040F29800C2F200000168013101607047AC
:1013100040F2C000C2F2000000210160704700BF2F
:1013200040F2C000C2F200000168B1F5FA6F18D9AE
:1013300040F21000C2F20000017879B940F2B80121
:10134000C2F2000100220A6040F2B001C2F20001C4
:101350000A6040F20801C2F200010A700121017026
:1013600007E040F21002C2F20002002301311370C4
:10137000016042F20000C4F20000012101F030BD22
:1013800080B5012000F0C0FB42F60040C4F201002D
:101390000121BDE8804001F023BD00BF80B5FFF70B
:1013A0002DFA0020022100F0D9FD002808BF80BDE1
:1013B00000200221BDE8804000F00ABE80B5022076
:1013C000022100F0CBFD002808BF80BD00F0C6F868
:1013D00002200221BDE8804000F0FABD80B5042063
:1013E000022100F0BBFD002808BF80BD00F0F2F82C
:1013F00004200221BDE8804000F0EABD40F29800E0
:10140000C2F2000000687047002808BF704740F231
:101410009801C2F200010A6800BF0B689B1A834260
:10142000FAD37047704700BFFEE700BFFEE700BF7A
:10143000FEE700BFFEE700BF704700BF704700BF78
:1014400070470000F0B581B092B114460D460646D3
:10145000002700BFE95D304602F096FA304640F2C0
:10146000067102F0DBFC0028F8D00137A742F1D169
:1014700001B0F0BDB0B50022012917DB41F2210E09
:1014800003788C46013982EA0322082314B25500FE
:10149000002CA3F1010348BF8EEA42051A062A4632
:1014A000F4D1BCF1020F00F10100E9DA90B2B0BD55
:1014B000B0B584B040F20400C2F2000000244AF645
:1014C000CD310068C4F2C824ADF80010214602F006
:1014D000F9FD03F089F840F23C01C2F2000109680D
:1014E000ADF806000846214602F0ECFD03F07CF85A
:1014F00040F29C01C2F20001ADF80800D1E90105FB
:10150000214602F0DFFD03F06FF840F2AC01C2F2B9
:1015100000010968ADF80A000846214602F0D2FD34
:1015200003F062F8ADF802002846214602F0CAFD39
:1015300003F05AF86C46ADF8040020460C21FFF782
:1015400099FFADF80C0043F60000C4F201002146FB
:101550000E22FFF777FF04B0B0BD00BFB0B540F278
:101560000D10C2F20000017840F20A002F29C2F2E9
:10157000000004BF00220280B0F90020002A27D416
:10158000531C9CB240F21805C2F20005072C0380E0
:10159000A95418BFB0BD4FF6FF71B5F805400180E2
:1015A00028460521FFF766FF844211D140F2B000C2
:1015B000B5F90110C2F20000B5F90320016040F254
:1015C000B800C2F200000260BDE8B040FFF7A0BE64
:1015D000B0BD000070B540F20C10C2F200000178FE
:1015E00040F20C002F29C2F2000004BF002202804A
:1015F000B0F90020002A43D4531C9EB240F21F04CD
:10160000C2F200040C2E0380A15418BF70BD4FF627
:10161000FF716589018020460A21FFF72BFF854273
:101620002ED1607840F20802C0F3C001C2F200027D
:10163000117040F29C01C0F38002C0F3400500F03D
:1016400001061120C2F2000160700870D4F8020097
:10165000D4F8063041F20044C4F60004C1E90103A5
:101660002046102100F0CAFD20460221324600F03B
:10167000C5FD204601212A46BDE8704000F0BEBDF0
:1016800070BD00BFF0B581B0417840F20803C1F3EE
:10169000C002C2F20003D0F8026040F29C041A704B
:1016A0001123C2F2000443706660D0F8060041F2D4
:1016B0000046C4F60006C1F38002C1F3400701F002
:1016C0000105A06030461021237000F097FD3046E0
:1016D00002212A4600F092FD304601213A4601B02F
:1016E000BDE8F04000F08ABD10B584B041EAC211F7
:1016F0002F228DF804204FF61842DDE9064CCFF674
:10170000FF7210F57A7FC8BF024641EA4301B2F585
:101710007A7FA8BF4FF47A728DF8074001AC8DF83C
:101720000A1020460721ADF80520ADF808C0FFF7E4
:10173000A1FEADF80B0044F20040C4F200002146C7
:101740000922FFF77FFE04B010BD000080B540F213
:10175000093000F0BFFE40F20930BDE8804000F0E3
:10176000C9BE00BF42F20840C4F201000168C907C7
:1017700018BF7047016841F001010160704700BF68
:1017800042F20840C4F20100016821F00101016049
:10179000704700BF42F20840C4F20100016841F006
:1017A0000801016001680907FCD4016841F00401E7
:1017B000016000BF01684907FCD4704742F208404D
:1017C000C4F20100016841F480710160704700BFFC
:1017D00042F20840C4F20100016821F48071016006
:1017E000704700BF42F20840C4F20100016841F4B2
:1017F00000010160704700BF42F20840C4F20100DE
:10180000016821F400010160704700BF42F2084006
:10181000C4F20100016841F080710160704700BFAF
:1018200042F20840C4F20100016821F080710160B9
:10183000704700BF42F20442C4F20102136802285A
:1018400023F4C053136011D0012818BF70471068EB
:1018500020F4604010604FF4604000EB41301168AC
:1018600080B2084310604FF4006001E04FF48050F4
:10187000116808431060704742F20442C4F201024A
:10188000002900F4807105D0B9B941051BD4800747
:101890001FD4704719B1116821F48071116041059E
:1018A00003D5116821F480611160800758BF70472B
:1018B000506820F0020050607047116841F4807158
:1018C00011604105E3D5116841F480611160800722
:1018D000DFD5506840F002005060704742F2084186
:1018E000C4F201010A68002822F4006218BF02F560
:1018F00000620A60704700BF022814D0012818BF98
:10190000704742F22C40C4F20100026822F47002D7
:1019100002604FF4700202EB0151026801F47001A1
:1019200011430160704742F22C40C4F20100C268CA
:1019300022F44012C2604FF4401202EB0151C2681F
:1019400001F440111143C160704700BF80B5B1F18F
:10195000120342F20C4C18BF0B460528C4F2010CCE
:101960000DD8DCF828E000EB80001F2181402EEA32
:10197000010103FA00F00843CCF8280020E00B280E
:101980000ED800EB8000DCF824E01E381F218140D7
:101990002EEA010103FA00F00843CCF824000FE01E
:1019A0000F280DD800EB8000DCF820E03C381F2128
:1019B00081402EEA010103FA00F00843CCF8200030
:1019C000092B0CD8DCF8040003EB430107238B4000
:1019D000984302FA01F10843CCF8040080BD112BB2
:1019E00088BF80BD03EB4301DCF800001E390723EC
:1019F0008B40984302FA01F10843CCF8000080BD07
:101A000080B542F2384CC4F2010CDCF80030DCF84E
:101A100000E0C3F30153181A00EB8000C0F10F007F
:101A20001F2383402EEA030301FA00F0184309291B
:101A3000CCF800000CD85CF8280C01EB410107231E
:101A40008B40984302FA01F108434CF8280C80BD02
:101A5000122988BF80BD01EB41015CF82C0C1E39B6
:101A600007238B40984302FA01F108434CF82C0CF1
:101A700080BD00BF42F21442C4F20102536AC3F3B4
:101A80000153C01A033003289CBF6FF31F3142F883
:101A90002010704742F20842C4F20102002900F00F
:101AA000010103D079B9800713D4704719B11168C7
:101AB00021F480111160800758BF7047106820F42E
:101AC000004010607047116841F480111160800778
:101AD000EBD5106840F4004010607047012805D035
:101AE000022818BF70476FF4E04001E06FF46020F7
:101AF00042F20842C4F201021368184010601068F4
:101B000008431060704700BFC10742F20841C4F2A9
:101B1000010103D00A6842F480020A60800758BFBE
:101B20007047086840F400100860704742F24C406B
:101B3000C4F20100006880B2704700BF03280AD8D1
:101B4000DFE800F0020C131A42F23C40C4F201003C
:101B5000006880B27047002080B2704742F23C407B
:101B6000C4F20100406880B2704742F23C40C4F2C7
:101B70000100806880B2704742F23C40C4F201002C
:101B8000C06880B2704700BF42F20041C4F2010158
:101B90000968084018BF0120704700BF42F20041A9
:101BA000C4F201010A6822EA00000860704700BF21
:101BB000012807D0042807D002281CBF0020704746
:101BC000202102E0402100E0802142F20042C4F2E4
:101BD0000102136852681840114018BF0121002803
:101BE00018BF01200840704742F20041C4F20101D1
:101BF0000A6822EA00000860704700BFC10742F28D
:101C00000441C4F2010103D00A6842F040020A60B4
:101C1000820703D50A6842F020020A60400758BFD5
:101C20007047086840F0800008607047C10742F2C2
:101C30000441C4F2010103D00A6822F040020A60A4
:101C4000820703D50A6822F020020A60400758BFC5
:101C50007047086820F080000860704742F2044135
:101C6000C4F201010A684FF6E053CFF63F731A4001
:101C70000A600A6810430860086840F4400040F4B5
:101C800000700860704700BF42F20441C4F20101D5
:101C90000A684FF6FF53CFF63F7301381A40C3B2BC
:101CA000022B0A6088BF704740B203A252F820009E
:101CB0000A68104308607047000080000000400080
:101CC0000000C00042F20440C4F2010001684FF677
:101CD000E052CFF63F7211400160704742F2244259
:101CE0006FF31F30C4F201026FF31F3150601160B7
:101CF00070470000042200EB8001C4F2020202EBF4
:101D000081014B68800023F001034B6000234B608E
:101D10008B60CB600B610F21136801FA00F0184350
:101D20001060704700210122C0E90011C0E90221C2
:101D3000C0E90412C0E906110162704710B540F213
:101D4000080ED1F800C000EB8000C4F2020E0EEBCA
:101D50008003C3F808C0CA68DA60CA695A605EF8CE
:101D600020204B6822F47C5C0A690C6A43EA0C036D
:101D70001A4322434EF820208A685EF82030002A59
:101D800023F0400308BF40334EF820304A695EF824
:101D90002030002A23F0800308BF80334EF8203023
:101DA00089695EF82020002922F0100218BF103245
:101DB0004EF8202010BD00BF082100EB8000C4F2C7
:101DC000020151F8202042F0200241F82020704703
:101DD000082100EB8000C4F2020151F8202022F01B
:101DE000200241F820207047082100EB8000C4F257
:101DF000020151F8202042F4804241F8202070472F
:101E0000082100EB8000C4F2020151F8202022F4E6
:101E1000804241F820207047082100EB8000C4F286
:101E2000020151F8202042F0010241F820207047C1
:101E3000082100EB8000C4F2020151F8202022F0BA
:101E4000010241F820207047102200EB8000C4F20C
:101E5000020242F820107047142200EB8000C4F206
:101E6000020242F8201070470C2200EB8000C4F2FE
:101E7000020242F8201070470C2100EB8000C4F2EF
:101E8000020151F820007047082200EB8000C4F2E4
:101E9000020252F8203023F44053194342F8201034
:101EA000704700BF082200EB8000C4F2020252F823
:101EB000203023F44063194342F82010704700BFDC
:101EC000082200EB8000C4F2020252F8203023F412
:101ED0004073194342F82010704700BF082100EBFF
:101EE0008000C4F2020151F8202042F0800241F843
:101EF00020207047082100EB8000C4F2020151F855
:101F0000202022F0800241F820207047082100EBB9
:101F10008000C4F2020151F8202042F0400241F852
:101F200020207047082100EB8000C4F2020151F824
:101F3000202022F0400241F820207047082200EBC8
:101F40008000C4F2020252F82030002923F010036E
:101F500018BF103342F82030704700BF80B54B1EC9
:101F6000072B4FF0000131D840F2000CC4F2020CF4
:101F7000DFE803F0040E2C132C2C2C18DCF80010D6
:101F800082000F239340194021FA02F30E2113E03F
:101F9000DCF800E08300022108E0DCF800E08300C8
:101FA000042103E0DCF800E08300082101FA03F2D9
:101FB00002EA0E0222FA03F300EB80000CEB800031
:101FC0008068084010EA030118BF0121084680BD5F
:101FD0000422C4F202028000136801FA00F01843E0
:101FE00010607047082200EB8000C4F2020252F831
:101FF0002030194342F82010704700BF082200EB40
:102000008000C4F2020252F8203023EA010142F8B3
:10201000201070470022C4F202021268800001FA08
:1020200000F0104018BF0120704700BF0422C4F226
:1020300002028000136801FA00F018431060704734
:1020400043F20000C4F2000000210160704700BFAD
:1020500043F20000C4F200004AF6AA210160704772
:1020600043F20000C4F200004CF6CC41016070471E
:1020700043F20001C4F2000145F255520A60022207
:10208000CFF6F072CB6803F004031AB1002B02F113
:102090000102F7D1002B11BF00206FF31F30086140
:1020A0000120704780B540F2020ECFF6F07E43F279
:1020B000000CC4F2000C45F255527346CCF80020D7
:1020C000DCF80C2002F001021BB1002A03F101032D
:1020D000F6D16AB9CCF80410DCF80C10BEF1000F90
:1020E00001F0020103D000290EF1010EF4D109B173
:1020F000002080BD6FF31F30CCF808004AF6AA20FC
:10210000CCF80000012080BD43F20C01C4F20001B4
:102110000968084018BF01207047000000F13840EE
:102120004FEAB020052888BF7047C1B22F2222FA9B
:1021300001F1C90700D1704710B544F64601C0F659
:10214000000131F81040204600F0C4F92046BDE8F7
:10215000104000F0CFB900BF2DE9F041D0F800E009
:10216000D0F80CC000244FF00308002605E000BFA3
:102170000136102E04F1020412D023FA06F7FF07ED
:10218000F6D008FA04F72EEA070E01FA04F54EEA33
:10219000050E2CEA070702FA04F547EA050CE7E703
:1021A000C0F800E0C0F80CC0BDE8F081B0B501296E
:1021B000416814BF994319434160D0F808C0002119
:1021C0004FF0030E002404E00134102C01F1020151
:1021D0000CD023FA04F5ED07F6D00EFA01F52CEA3F
:1021E000050C02FA01F54CEA050CEDE7C0F808C051
:1021F000B0BD00BF81617047816270471823002A1B
:1022000008BF282319507047416170470069084092
:1022100018BF0120704700BF006980B2704700BF3F
:102220004069084018BF0120704700BF406980B274
:10223000704700BFF0B5D0F820E0D0F824C00023EC
:102240000F27002505E000BF0135082D03F1040329
:102250000CD022FA05F6F607F6D007FA03F62EEAB6
:10226000060601FA03F446EA040EEDE7082300240B
:102270000F2504E00133102B04F104040CD022FAE2
:1022800003F6F607F6D005FA04F62CEA060701FA7B
:1022900004F647EA060CEDE7C0F820E0C0F824C0D9
:1022A000F0BD00BF41F48032C261C161C261C16949
:1022B000C069704740F080604EF60C5140F0FD70F0
:1022C000CEF20001086070474EF60C5CCEF2000CB6
:1022D000DCF8003003F4E063B3F5E06F03D14FF0B6
:1022E000000C04232BE0DCF8003003F4E063B3F5CA
:1022F000C06F03D14FF0010C032320E0DCF8003065
:1023000003F4E063B3F5A06F03D102234FF0020C96
:1023100015E0DCF8003003F4E063B3F5806F03D11F
:102320004FF0030C01230AE0DCF800304FF0040CFE
:1023300003F4E063B3F5407318BF01239B00994099
:102340000F2323FA0CF31A4011434EF20012CEF27F
:102350000002090140EA020383F8001300F01F01A4
:10236000012303FA01F11C2303EAD00081507047D6
:1023700000F01F01012202FA01F14EF28012CEF2AA
:10238000000242EAD00020F003000160704700BF65
:102390004FF68072C1F6FF72114008434EF60851A5
:1023A000CEF20001086070474EF61051CEF20001E7
:1023B0000A681043086070474EF61051CEF20001D3
:1023C0000A6822EA00000860704700BF4EF2100160
:1023D000CEF200010A68042822F0040208BF043289
:1023E0000A60704741F20400C4F2020050F8041C75
:1023F00041F0010140F8041C50F8041C8907FBD58A
:1024000001680C22C0F6FF021140016001684FF61E
:10241000FF72CFF2C0721140016001684FF6FF7287
:1024200021F44001016050F8041CCFF6F262114023
:1024300040F8041C816A40F2431221F00F018162CE
:10244000C16A9143C162016B21F001010163002166
:102450004160704741F2000300F01F018009C4F29F
:1024600002034FF0010CC2580CFA01F11143C150A4
:10247000704700BF41F2000300F01F018009C4F261
:1024800002034FF0010CC2580CFA01F122EA0101DB
:10249000C150704741F2000300F01F018009C4F2EF
:1024A00002034FF0010CC2580CFA01F11143C15064
:1024B000704700BF41F2000300F01F018009C4F221
:1024C00002034FF0010CC2580CFA01F122EA01019B
:1024D000C150704741F2000300F01F018009C4F2AF
:1024E00002034FF0010CC2580CFA01F11143C15024
:1024F000704700BF41F2000300F01F018009C4F2E1
:1025000002034FF0010CC2580CFA01F122EA01015A
:10251000C150704741F22000C4F20200016841F44A
:1025200080310160704700BF41F22000C4F2020018
:10253000016821F480310160704700BF41F204015D
:10254000C4F202010A6822F00302104308607047D7
:1025500041F20400C4F20200006800F00C00704771
:1025600041F20401C4F202010A6822F0F0021043B1
:102570000860704741F20401C4F202010A6822F4C3
:10258000E06210430860704741F20401C4F20201A6
:102590000A6822F4605210430860704741F2040157
:1025A000C4F202010A68042822F440420A60CA6A9E
:1025B00022F48072CA6288BF7047DFE800F0030827
:1025C0000A0E1200C86A20F48070C862704708685A
:1025D0000AE0086840F4804006E0086840F40040E3
:1025E00002E0086840F440400860C86A40F4807027
:1025F000C862704741F20401C4F202010A6822F481
:1026000040020A600A6810430860704741F2040201
:10261000C4F202021368084323F0774318431060A2
:10262000704700BF41F20402C4F20202D2F800C0B7
:102630004FF6FF73CFF2C27303EA0C031360136803
:10264000084318431060704741F23001C4F20201A0
:102650000A6822F003020A600A68104308607047A3
:1026600041F23001C4F202010A6822F040020A601D
:102670000A6810430860704741F22001C4F2020169
:102680000A6822F440720A600A68104308607047C2
:1026900041F22C01C4F202010A6822F00F02104339
:1026A0000860704741F22001C4F202010A6822F07A
:1026B00018020A600A6810430860704741F200027D
:1026C0008109C4F20202895800F01F0021FA00F0CB
:1026D00000F00100704700BF41F22400C4F2020084
:1026E000016841F080710160704700BF41F208014C
:1026F000C4F202010968084018BF0120704700BFFA
:1027000041F20801C4F202010A68104308607047F0
:1027100041F20801C4F202010A68104308607047E0
:1027200041F20801C4F202010A6822EA00000860CE
:10273000704700BF0146B0F5006F4FF000001DDA92
:10274000E1B3102950D0182940F0958041F2000CD7
:102750004FF6FE71C4F2020CC0F20F01002200BF5E
:10276000DCF80000013942F10003800101D4002BA4
:10277000F6D1DCF80000C0F3406070474AD0B1F5F4
:10278000106F61D0B1F5506F18BF704741F2000C67
:102790004FF6FE71C4F2020CC0F20F01002200BF1E
:1027A000DCF83400013942F10003800701D4002B2A
:1027B000F6D1DCF83400C0F34000704741F2000C61
:1027C00040F2FF40C4F2020C002200BFDCF800100F
:1027D000013842F10003890701D4002BF6D1DCF85F
:1027E0000000C0F34000704741F2000C40F2FF705F
:1027F000C4F2020C002200BFDCF80010013842F1E4
:102800000003890301D4002BF6D1DCF80000C0F3EB
:10281000404070474FF6FE7141F2000CC0F20F01CC
:10282000C4F2020C01F17C71002200BFDCF8200030
:10283000013942F10003800701D4002BF6D1DCF806
:102840002000C0F34000704741F2000C4FF6FE71CB
:10285000C4F2020CC0F20F01002200BFDCF8240019
:10286000013942F10003800701D4002BF6D1DCF8D6
:102870002400C0F34000704741F2000300F01F0144
:102880008009C4F202034FF0010CC2580CFA01F1A6
:102890001143C150704700BF41F2000300F01F0117
:1028A0008009C4F202034FF0010CC2580CFA01F186
:1028B00022EA0101C1507047B0F5006F0FD0102817
:1028C00018BF704741F20000C4F2020001680268BC
:1028D00041F4802122F4803202600160704741F2AD
:1028E0000000C4F20200016A026A41F0040122F011
:1028F0000102026201627047B0F5006F0FD010282C
:1029000018BF704741F20000C4F20200016802687B
:1029100021F4802122F4803202600160704741F28C
:102920000000C4F20200016A026A21F0040122F0F0
:10293000010202620162704741F20000C4F202002B
:10294000016841F400210160704700BF41F20000BE
:10295000C4F20200016821F400210160704700BF49
:1029600041F20001C4F202010A6822F0F80242EAD0
:10297000C0000860704700BF41F23401C4F2020198
:102980000A6822F0F80242EAC0000860704700BFFF
:1029900041F20010C4F202000168002101600168E8
:1029A00043F64D42C1F62B2211430160704700BF30
:1029B00041F23411C4F202010A6822F007020A60EF
:1029C0000A6810430860704741F23811C4F20201EE
:1029D0000A6822F001020A600A6810430860704722
:1029E00070B541F20402C4F202020146106841F2DD
:1029F000002CC0F27A0C00F00C000828634619D1B4
:102A00001068136815681B014FF01103C0F3834071
:102A100058BF0223ED03184405D440F60013C0F25A
:102A20003D03434306E0936A03F00F030133BCFB0D
:102A3000F3F343431468D2F800E0106806291ED867
:102A4000C4F303142FA52C5D44F65205C0F600050F
:102A5000C0F3C220285C23FA04F424FA00F0DFE873
:102A600001F00410123A06182000184670BDD16A11
:102A7000C90531D449F68070C0F2D50070BD002080
:102A800070BD204670BDCEF30220285C24FA00F011
:102A900070BDD06A40064FF4004058BF48F21200A3
:102AA00070BDD16A890708BF70BDD06A00F003000D
:102AB000012818460FD0D06A00F00300022804BF96
:102AC0004FF4004070BDD06A00F00300032818BF27
:102AD0004FF0000C604670BD1168C1F38131DFE832
:102AE00001F00204060E400870BD800870BD4AF671
:102AF000AB21CAF6AA21A0FB0101880870BDC0085D
:102B000070BD00BF000000000000000001020304CF
:102B10000607080910B542F6FF31C4F201018842E8
:102B200011DC40F6FF71C4F20001884220DCB0F1F4
:102B3000804F3CD040F20041C4F20001884249D1AC
:102B400040F201443EE044F2FF31C4F20101884208
:102B50001DDC42F60041C4F2010188422AD044F251
:102B60000001C4F20101884234D14FF4447429E0D9
:102B700041F20001C4F2000188421ED042F200017D
:102B8000C4F20001884225D14FF481641AE044F276
:102B90000041C4F20101884212D044F60001C4F29F
:102BA0000101884218BF10BD40F212340AE04FF410
:102BB000806407E040F20B3404E040F2044401E09A
:102BC00040F211342046FFF785FC2046BDE8104056
:102BD000FFF790BC10BD00BF00214FF6FF72C0E9A7
:102BE00000118260017370470A8842F6004CB0F110
:102BF000804FC4F2010C826218BF60452ED1036879
:102C000023F0700303604B8802681A4302608A88CD
:102C100003681A43026042F6FF338A68C4F2010374
:102C20009842C2620ADD44F2FF32C4F201029042CD
:102C30001BDC604525D044F200021EE0B0F1804F5D
:102C40001FD040F20042C4F20002904219D042F27A
:102C50000002C4F20002904213D02AE040F2004386
:102C6000C4F200039842CAD0D5E744F60002C4F289
:102C70000102904205D044F20042C4F201029042A7
:102C800017D1026822F440720260CA8803681343B5
:102C9000A0F18042A2F596324FEAB222072A0360E1
:102CA00007D8012303FA02F212F0E10F1CBF097BDF
:102CB0000163416941F0010141617047016841F0E0
:102CC00001010160704700BF016821F0010101604E
:102CD000704700BF016841F080010160704700BF8C
:102CE000016821F080010160704700BF016821F098
:102CF00002010160704700BF016841F002010160FC
:102D0000704700BF026822F060020260026811434F
:102D100001607047016821F010010160704700BF39
:102D2000016841F010010160704700BF002A816214
:102D300018BF7047416941F001014161704700BF10
:102D400001637047C162704741627047406A7047D3
:102D5000806A80B2704700BF012907D0002918BFE0
:102D60007047016841F0080101607047016821F077
:102D700008010160704700BF012907D0002918BF72
:102D80007047016841F0040101607047016821F05B
:102D900004010160704700BF39B1012918BF7047B5
:102DA000816841F0080181607047816821F0080165
:102DB00081607047C2681143C1607047C26822EAEF
:102DC0000101C160704700BFC26800690A40084045
:102DD00018BF0120002A18BF01221040704700BF11
:102DE000C9430161704700BF0069084018BF012056
:102DF000704700BFC9430161704700BFC2681143FB
:102E0000C1607047C26822EA0101C160704700BF1B
:102E1000012907D0002918BF7047416841F0080117
:102E200041607047416821F008014160704700BF70
:102E3000D0F848C041F61F732CEA03038364836C07
:102E400011431943816470474269114341617047DE
:102E50000021C0E90011C0E90211C0E90411704766
:102E600010B5D1E900230C891A434B89D1E903CE6F
:102E700022431A43496942EA0C0242EA0E02114314
:102E8000416410BD416C41F480514164704700BF02
:102E9000416C21F480514164704700BF416C41F4A2
:102EA00080414164704700BF416C21F4804141641E
:102EB000704700BF426C012922F4004208BF02F5AE
:102EC00000424264704700BF4268012922F00102BB
:102ED00008BF013242607047012907D0002918BF9E
:102EE0007047416821F0040141607047416841F03A
:102EF00004014160704700BF00218181C0E90011D9
:102F000081607047032900F20F81DFE801F0028D34
:102F100046D4016A21F001010162816921F00301B7
:102F200081611168036A19430162016A21F002019B
:102F30000162D188036A0B43A0F18041A1F596316B
:102F40004FEAB1210729036200F2EE80012303FA60
:102F500001F111F0E10F00F0E780016A21F00401B6
:102F600001629188036A19430162016A21F0080134
:102F700001621189036A1943016250F8041F21F4A8
:102F8000807101605189036819430160016821F46F
:102F90000071016093890268C3E0016A42F6044C43
:102FA00021F480710162C169C4F2010C21F00301B6
:102FB000C1611168036A43EA01210162016A21F4D7
:102FC00000710162D388016A41EA0321ACF1040374
:102FD0009842016240F0A880016A21F48061016298
:102FE0009188036A43EA01210162016A21F40061C8
:102FF00001621189036A43EA01210162DCF80000E1
:1030000020F48050CCF800005089DCF8001041EA30
:103010000010CCF80000DCF8000020F40050CCF8E0
:103020000000908902016DE0016A21F01001016247
:10303000816921F4407181611168036A43EA0111D9
:103040000162016A21F020010162D188036A43EA2A
:10305000011144F20003C4F201039842016255D009
:1030600042F60041C4F2010188425DD1016A21F0BB
:10307000400101629188036A43EA01110162016A19
:1030800021F0800101621189036A43EA01110162A2
:1030900042F60440C4F20100016821F4806101603D
:1030A0005189036843EA81010160016821F40061EC
:1030B0000160918933E0016A42F6044C21F48051A9
:1030C0000162C169C4F2010C21F44071C16111684F
:1030D000036A43EA01310162016A21F4005101628D
:1030E000D388016A41EA0331ACF1040398420162DA
:1030F00018BF7047DCF8000020F48040CCF80000D6
:1031000050898201DCF8003060460AE044F2040095
:10311000C4F20100016821F48061016051890368F3
:103120008A0042EA03010160704700BF032988BF9B
:103130007047DFE801F0020E050B50F8181F01E0A0
:1031400050F81C1F21F07001016008E050F81C1FAE
:1031500001E050F8181F21F4E041120201600168FB
:1031600011430160704700BF03299CBF00EB810041
:1031700042637047032988BF7047DFE801F0020E01
:10318000050B50F8181F01E050F81C1F21F0080132
:10319000016008E050F81C1F01E050F8181F21F4EE
:1031A000006112020160016811430160704700BFB5
:1031B000032988BF7047DFE801F0020E050B50F8C5
:1031C000181F01E050F81C1F21F00401016008E005
:1031D00050F81C1F01E050F8181F21F48061120202
:1031E0000160016811430160704700BF032988BF77
:1031F0007047DFE801F0020E050B50F8181F01E0E0
:1032000050F81C1F21F08001016008E050F81C1FDD
:1032100001E050F8181F21F400411202016001681A
:1032200011430160704700BF032988BF7047DFE882
:1032300001F00216080F50F8201F21F00201016072
:1032400013E050F8201F120221F4007101600CE01D
:1032500050F8201F120321F40051016005E050F8DE
:10326000201F120121F0200101600168114301605B
:10327000704700BF032988BF7047DFE801F00216DE
:10328000080F50F8201F21F00801016013E050F8EA
:10329000201F120221F4006101600CE050F8201F91
:1032A000120321F40041016005E050F8201F1201D3
:1032B00021F080010160016811430160704700BF87
:1032C000032988BF7047DFE801F00216080F50F8A5
:1032D000201F21F00101016013E050F8201F1202AD
:1032E00021F4807101600CE050F8201F120321F4DA
:1032F0008051016005E050F8201F120121F01001FB
:103300000160016811430160704700BF02290AD0C3
:1033100001290FD0002918BF704750F8201F21F055
:10332000040101600CE050F8201F120221F48061BA
:10333000016005E050F8201F120121F040010160FA
:1033400001681143016070474FF480310160002132
:1033500041607047F0B5032900F28B80DFE801F08F
:10336000021B355784465CF8203F4FF0010E23F0D6
:103370000103CCF80030DCF8003023F00A03CCF86D
:1033800000301388DCF800703B43CCF80030034673
:1033900053F8187F32E084465CF8203F4FF0100E5F
:1033A00023F01003CCF80030DCF8003023F0A00349
:1033B000CCF800301388DCF8007047EA0313CCF82F
:1033C0000030034653F8187F3AE084465CF8203F0B
:1033D0004FF4807E23F48073CCF80030DCF80030AA
:1033E00023F42063CCF800301388DCF8007047EA3F
:1033F0000323CCF80030034653F81C7F27F0030763
:103400001F6054881D6804266FF0F00721E0844691
:103410005CF8203F4FF4805E23F48053CCF80030FA
:10342000DCF8003023F42043CCF800301388DCF8BB
:10343000007047EA0333CCF80030034653F81C7F92
:1034400027F440771F6057881C683D020C266FF4F4
:1034500070472C431C601C683C401C60D4881D686D
:10346000B4402C431C60DCF8003043EA0E03CCF877
:103470000030032988BFF0BD9288DFE801F0020523
:10348000080E50F8181F04E050F8181F07E050F815
:103490001C1F21F00C01016005E050F81C1F21F4F5
:1034A000406112020160016811430160F0BD00BF7C
:1034B000032988BF7047DFE801F0020E050B50F8C2
:1034C000181F01E050F81C1F21F00C01016008E0FA
:1034D00050F81C1F01E050F8181F21F4406112023F
:1034E0000160016811430160704700BF03298EBF6E
:1034F000002000EB8100406B704700BF70B514885E
:103500005688B4FA84F34FF0010E5B09012E08BF10
:103510004FF0020E056A00294FEA430C4FD025F008
:1035200010010162016A21F0A0010162016A41EA11
:1035300004110162014651F8183F23F440730B60F7
:103540000B6843EA06230B600B6823F470430B609F
:10355000D3880C6844EA03340C60046A44F0100415
:10356000046292880C6824F440640C600C6844EA9D
:1035700002240C60046A24F001040462046A24F04A
:103580000A040462046A44EA0C0606620E6826F025
:1035900003060E600E6846EA0E060E600E6826F000
:1035A000F0060E600E6846EA03130B60036A43F0F0
:1035B00001030362086820F00C0008604CE025F06D
:1035C00001010162016A21F00A010162016A2143DD
:1035D0000162014651F8183F23F003030B600B68AA
:1035E00033430B600B6823F0F0030B60D3880C6847
:1035F00044EA03140C60046A44F0010404629288F3
:103600000C6824F00C040C600C6814430C60046A11
:10361000120224F010040462046A24F0A00404627C
:10362000046A44EA0C1606620E6826F440760E60C0
:103630000E6846EA0E260E600E6826F470460E608E
:103640000E6846EA03330B60036A43F0100303621B
:10365000086820F44060086008681043086070BD86
:10366000012907D0002918BF7047416841F0800147
:1036700041607047416821F080014160704700BFA0
:10368000826822F070028260826811438160704714
:10369000426822F070024260426811434160704704
:1036A000826822F00702826082681143816070475D
:1036B000012907D0002918BF7047816841F08001B7
:1036C00081607047816821F080018160704700BF90
:1036D000D0F808C011432CF43F4CC0F808C0D0F813
:1036E00008C041EA0C018160816841EA03218160E0
:1036F000704700BFD0F808C042EA03122CF0070C54
:10370000C0F808C0D0F808C041EA0C018160D0F8C8
:1037100018C040F203312CEA01018161D0F818C0D1
:1037200040F2011141EA0C018161016A21F00A01B4
:103730000162016A21F0A0010162016A1143016284
:10374000704700BF816821F007018160704700BFAA
:10375000826822F070028260826811438160816811
:1037600021F007018160816841F0070181607047A5
:10377000F0B5066A602911D126F010060662066AC5
:10378000120126F0A006066210244FF00C0C6FF414
:10379000704E4FF480756FF440760EE026F001060F
:1037A0000662066A4FF0040C26F00A0606626FF005
:1037B000F00E01256FF003060124076A03FA0CF3EB
:1037C0003A43026282693240826182692A4382619D
:1037D000826902EA0E02826182691A438261026A88
:1037E00022430262826822F0700282608268114382
:1037F0008160816821F007018160816841F00701E3
:103800008160F0BDD0F808C011432CF43F4CC0F8E3
:1038100008C0D0F808C041EA0C018160816841EA23
:1038200003218160816821F077018160816841F026
:1038300077018160704700BFD0F808C011432CF4B5
:103840003F4CC0F808C0D0F808C041EA0C018160C4
:10385000816841EA03218160816841F4804181608F
:10386000704700BF816821F480418160704700BFCC
:103870000165704710B543F60001C4F201018842AA
:1038800009D044F20041C4F20001884218BF10BDC3
:1038900040F2114401E040F20E342046FEF71AFED9
:1038A0002046BDE81040FEF725BE00BFB0B5044677
:1038B00043F60000C4F2010084420D4607D044F2F2
:1038C0000040C4F20000844205D1022000E006203E
:1038D000FFF786F800E000202168090406D400EB19
:1038E0005500B0FBF5F080B2E060B0BD400000EBE9
:1038F0005500B0FBF5F04FF6F0710140C0F3420007
:103900000844E060B0BD00BF026822F0010202601E
:10391000026822F4C06202600268114301607047CD
:10392000026822F001020260026822F48052026002
:103930000268114301607047026822F001020260D0
:10394000426822F44052426042681143416070472D
:10395000016841F001010160704700BF016821F07A
:1039600001010160704700BF026822F00802026096
:103970000268114301607047026822F0040202608D
:1039800002681143016070476FF35F2181627047E5
:10399000406A6FF35F207047026801F4002122F053
:1039A00001020260426822F4002242604268114330
:1039B000416070470268072922F00102026088BF57
:1039C0007047DFE801F004090E13181D2227416833
:1039D00041F4802141607047416821F480214160B9
:1039E0007047416841F4003141607047416821F4FB
:1039F000003141607047416841F480314160704757
:103A0000416821F4803141607047416841F40041D0
:103A100041607047416821F400414160704700BF38
:103A2000016821F001010160816821F48051816009
:103A3000704700BF016821F001010160816841F415
:103A400080518160704700BF026822F0010202606D
:103A5000026822F40042026002681143016070476C
:103A6000026822F001020260826822F40062826031
:103A70008268114381607047416841F48011416060
:103A8000704700BF416821F480114160704700BF5A
:103A9000426822F4C00242604268114341607047AC
:103AA000016841F400510160704700BF016821F4D2
:103AB00000510160704700BF026822F001020260FD
:103AC000026822F4006202600268114301607047DC
:103AD000026801F0100122F001020260426822F047
:103AE000100242604268114341607047026822F050
:103AF00001020260426822F07F424260426842EA6C
:103B000001614160704700BF416841F400014160BC
:103B1000704700BF416821F400014160704700BF59
:103B2000426902F07F42426142691143416170473C
:103B3000016821F001010160416841F48041416068
:103B4000704700BF016821F001010160416821F464
:103B500080414160704700BF026801F0200122F0FF
:103B6000010202604268114341607047016821F020
:103B700001010160816841F008018160704700BF68
:103B8000016821F001010160816821F00801816074
:103B9000704700BF016821F001010160416841F4F4
:103BA00000614160704700BF016821F001010160C0
:103BB000416821F400614160704700BFD0F800C047
:103BC00001F480712CF0010CC0F800C0D0F804C0E2
:103BD00002F400722CF4E06CC0F804C0D0F804C009
:103BE00041EA0C014160416811434160416803F4BE
:103BF0008062114341607047016821F0010101605A
:103C0000816841F020018160704700BF016821F0A8
:103C100001010160816821F020018160704700BFCF
:103C2000016821F001010160816841F010018160AB
:103C3000704700BF016821F001010160816821F037
:103C400010018160704700BF0268090222F0010282
:103C50000260026989B222F47F4202610269114363
:103C600001617047426922F07F424261426942EA43
:103C700001614161704700BF026801F0070122F055
:103C800001020260826822F460228260826842EA55
:103C900041418160704700BF016821F0010101606E
:103CA000816841F002018160704700BF016821F026
:103CB00001010160816821F002018160704700BF4D
:103CC000026801F0040122F00102026082681143DF
:103CD00081607047026822F001020260026922F0EE
:103CE000FF0202610269114301617047026822F01C
:103CF00001020260826822F480728260826811434D
:103D000081607047026822F001020260826822F43A
:103D1000007282608268114381607047016821F0FF
:103D200001010160816841F480418160704700BFFA
:103D3000016821F001010160816821F48041816006
:103D4000704700BF026801F01F0122F0010202600B
:103D5000026822F078720260026842EA4151016012
:103D6000704700BF026801F01F0122F001020260EB
:103D7000026822F4F8120260026842EA014101601E
:103D8000704700BF026801F4004122F001020260A6
:103D9000826822F400428260826811438160704729
:103DA000826822F04002826082681143816070471D
:103DB000826822F0800282608268114381607047CD
:103DC000016821F001010160816841F400518160C6
:103DD000704700BF016821F001010160816821F492
:103DE00000518160704700BF016841F0020101602D
:103DF000704700BF016821F002010160704700BFF9
:103E0000026801F4401122F001020260826822F48B
:103E10004012826082681143816070478A0910589D
:103E200001F01F01C84000F00100704701F01F01C0
:103E30000122036A02FA01F119430162704700BFCF
:103E400001F01F02C1F389114FF0010C0B580CFA5D
:103E500002F21A430A50704701F01F02C1F38911A0
:103E60004FF0010C0B580CFA02F223EA02020A503E
:103E7000704700BF8269114381617047C1F38912A5
:103E800052F800C08A0D105801F01F03C1F304411D
:103E9000C8402CFA03F1084000F00100704700BF51
:103EA000C1F304410122036A02FA01F119430162DC
:103EB000704700000648804706480047FEE7FEE7D7
:103EC000FEE7FEE7FEE7FEE7FEE7FEE7FEE7FEE7CA
:103ED000D93E00086901000841F20400C4F2020062
:103EE00050F8041C41F0010140F8041C50F8041C77
:103EF0008907FBD501680C22C0F6FF021140016062
:103F000002684FF6FF71CFF2C0710A40026002688A
:103F10004FF6FF7322F44002026050F8042CCFF6F3
:103F2000F2631A4040F8042C826A40F2431322F0F4
:103F30000F028262C26A01F500319A43C262026BCB
:103F400022F00102026300224260026802600268FD
:103F5000026002680260026811400160016841F07D
:103F6000006141F48021016050F8041C41F080712F
:103F700040F8041C50F8041C8901FBD5016821F0AD
:103F800003010160016841F0020101600168090755
:103F9000FCD5704741F20400C4F20200016801F050
:103FA0000C01082941F20021C0F27A011AD1D0F89F
:103FB00000C0036802681B014FF0110358BF0223C1
:103FC000D203CCF383421A4405D440F60011C0F268
:103FD0003D01514306E0836A03F00F030133B1FB57
:103FE000F3F1514340F20002C2F200021160006896
:103FF00004A1C0F30310085C116821FA00F01060FE
:10400000704700BF00000000000000000102030430
:1040100006070809F0B480EA0102D40F4200B2EBAF
:10402000410F02D20246084611464A0042D0C30D53
:10403000DDB2C1F3C752AD1A202D35DAC1F3160136
:1040400041F4000204B15242C5F1200602FA06F121
:104050002A411044B3EBD05F23D0C4B1012DA0EBB3
:10406000C35009DCF0BC4FF0004202EAC352DBB29D
:1040700000F5000000F02ABB400000F1807000EB6A
:10408000C350A0F1807040EAD170490009E04908AE
:1040900041EAC071A0EBC35000F50000400800EBFE
:1040A000C350F0BC00F009BB6142012202EB4101A8
:1040B000001BF6E7F0BC704781F00041AAE780F0F2
:1040C0000040A7E780EA010210B502F0004340007B
:1040D00022D04A001FD0010E01EB1261C0F356003E
:1040E000C2F3560240F4000042F40002A0FB02209A
:1040F00000047F39140400D0401C50EA124001D45F
:104100004000491EC2B20C0604EBD010401C40080F
:10411000802A02D003E0002010BD20F00100002919
:1041200000DA0020184310BD30B480EA010202F02A
:10413000004530F0004221F0004013D090B1C30D93
:10414000D40DC2F31601C0F31600E41A41F40001C5
:1041500040F400027D34914201D3641C00E0490028
:10416000002C02DA30BC002070474FF4000000231E
:10417000914201D3891A034340084FEA4101F7D124
:1041800051B1914202D14FF0004105E002D24FF00F
:10419000010101E06FF0010103EBC450284430BC81
:1041A00000F08BBA2DE9FE4F804681EA0300C00F74
:1041B0000C46009021F0004123F00045B8EB0200CE
:1041C000A94105D24046214690461C460B46024670
:1041D00023F00040104347D0270DC7F30A00C3F374
:1041E0000A510290401A019040286BDAC3F3130081
:1041F00040F4801B0098924620B10023D2EB030AC2
:1042000063EB0B0B01985946C0F14002504600F099
:1042100033FA06460D4650465946019A00F03BFADD
:1042200010EB08006141002487EA115284EAE77329
:104230001A4340D0009A62B3019A012A4FEA07520A
:1042400015DC001B61EB02014FF0004202EA07524D
:10425000CDE90042001C41F5801132462B4600F0AA
:1042600072FA03B0BDE8F08F40462146F9E7001B23
:1042700061EB0201001C41F5801300185B4120181E
:10428000A2F5001747EB030140EAD570B6196D415E
:1042900011E06D084FEA360645EAC0754FEA07524D
:1042A000001B61EB0201001C41F5801149084FEA37
:1042B00030000019514132462B4603B0BDE8F04FA3
:1042C00000F032BA0098012240000023D0EB020235
:1042D00063EBE073009821464FEAE074B8EB00000E
:1042E00061EB0401E9E783F000435BE781F0004103
:1042F00058E72DE9FE4F81EA030404F0004421F061
:10430000004100944FF0000B23F0004350EA0104F9
:104310005ED052EA03045BD0C3F30A54C1F30A55DA
:104320002C44A4F2F3340194A0FB0254C1F3130112
:1043300041F48011C3F3130343F4801301FB0244DF
:1043400000FB034E840A970A44EA815447EA8357E4
:10435000A4FB076802958D0A05FB07854FEA932C9D
:1043600004FB0C542705029D4FEA065847EA16370E
:10437000B5EB08056EEB070C870E920E47EA811726
:1043800042EA8312A7FB0201B6EB0B0164EB0004C7
:104390002B0D43EA0C335E1844EB1C50DA465146B1
:1043A000E7FB0201C5F313044FEA0B3343EA14534E
:1043B0004FEA0432019C43EA0603A4F10C04029480
:1043C000009CCDE900B400F0BEF903B0BDE8F08F69
:1043D00000200146F9E72DE9F04D81EA030404F0DD
:1043E000004B21F0004514464FF0000A23F0004135
:1043F00050EA050220D054EA01021DD0C5F30A5745
:104400000246C5F31303C1F31300C1F30A5640F487
:10441000801543F48013A7EB0608101BD64608F25C
:10442000FD3873EB050002D308F1010801E0921892
:104430005B41B8F1000F03DA00200146BDE8F08DC2
:1044400000204FF48011064684460EE0171B73EBE4
:10445000050705D3121B63EB050306434CEA010C69
:1044600049084FEA300092185B4150EA0107EDD14C
:1044700052EA030012D082EA040083EA05010843ED
:1044800005D0101BAB4106D20122002306E000221A
:104490004FF0004302E06FF0010253101AEB0600E8
:1044A0004CEB085110EB0A0041EB0B01BDE8F04D5D
:1044B00000F03AB9002801DBC0F10040002901DB1F
:1044C000C1F10041814201D80120704700207047AE
:1044D000002801DBC0F10040002901DBC1F10041EF
:1044E000814201D20120704700207047002801DB83
:1044F000C0F10040002901DBC1F10041814201D33C
:104500000120704700207047002801DBC0F1004007
:10451000002901DBC1F10041814201D9012070472E
:104520000020704730B5041E71F1000404DB4FF029
:104530000044404264EB0101141E73F1000405DBEA
:104540001C464FF00043524263EB0403801A99412A
:1045500001D3012030BD002030BD30B5041E71F103
:10456000000404DB4FF00044404264EB0101141EE0
:1045700073F1000405DB1C464FF00043524263EB2D
:104580000403101A8B4101D3012030BD002030BD3F
:10459000C10F80EAE0700844CA079623002100F0AA
:1045A00095B896230022114600F090B80EB5C10FC1
:1045B00080EAE0700844CA07002140F233438DE8E6
:1045C0000E000A460B4600F0BEF803B000BD0EB563
:1045D00040F2334102910021CDE900110A460B4619
:1045E00000F0B1F803B000BD00F0004220F0004040
:1045F000C10DC0F3160040F400007F2901DA00204D
:104600007047962903DCC1F19601C84001E0963954
:104610008840002AF4D04042704700F0004230F059
:1046200000400AD0C10D01F56071C0F3160042EAE6
:104630000151C208400711437047002001467047EE
:1046400001F0004330B421F0004150EA010206D0ED
:104650000A0DA2F56072C1F31301002A02DC30BC1E
:1046600000207047440F44EAC104C100E01830BC88
:1046700000EBC25000F021B8202A04DB203A00FAF7
:1046800002F1002070479140C2F1200320FA03F3A9
:10469000194390407047202A06DBCB17203A41FA95
:1046A00002F043EAE07306E041FA02F3D040C2F1BF
:1046B000200291400843194670470029A8BF70475F
:1046C000401C490008BF20F00100704710B4B0FA48
:1046D00080FC00FA0CF050EA010404BF10BC7047E3
:1046E00049B1CCF1200421FA04F411FA0CF118BFFD
:1046F000012121430843A3EB0C01CB1D4FEA0061CC
:104700004FEA102042BF002010BC704700EBC3509E
:1047100010440029A4BF10BC7047401C490008BFCA
:1047200020F0010010BC704710B5141E73F1000496
:1047300008DA401C41F1000192185B411A4301D193
:1047400020F0010010BD2DE9F04D92469B4611B1BD
:10475000B1FA81F202E0B0FA80F220329046FFF71F
:104760008BFF04460F4640EA0A0041EA0B0153461C
:104770005A46084313D0114653EA010019D0C8F134
:104780004002504600F040F805460E465046594655
:104790004246FFF771FF084305D0012004E02046A0
:1047A0003946BDE8F08D0020054346EAE0762C430B
:1047B00037430A986305E40AA0EB08000022FD0ACB
:1047C00044EA47540A3002D500200146E9E70105D2
:1047D00010196941DDE9084500196941BDE8F04D4E
:1047E000A2E70000064C074D06E0E06840F0010338
:1047F00094E8070098471034AC42F6D3FBF7B8FCB6
:10480000384B0008584B0008202A04DB203A21FAD4
:1048100002F00021704721FA02F3D040C2F12002D9
:10482000914008431946704702E008C8121F08C1AA
:10483000002AFAD170477047002001E001C1121F21
:10484000002AFBD17047110A120A130A140A110A2E
:10485000160A00000000010203040003050401021F
:1048600006000000000080BF82EC6FBF4FD160BF28
:104870006E9652BFE02645BF267038BFEB612CBF55
:10488000AFED20BF8A0616BFF6A00BBF9EB201BFD8
:104890007264F0BED02EDEBE32B5CCBEE2E9BBBE45
:1048A00068C0ABBE6A2D9CBE8B268DBE9C447DBE6F
:1048B000043061BE52FF45BECFA32BBEE70F12BE30
:1048C0001E6EF2BD521BC2BDDB1193BD617B4ABDA2
:1048D000B430E2BCD9BECEBB639A6D3C67C10E3D1D
:1048E0000A55603D211E983D1848BF3D41B4E53D45
:1048F000E4B6053E9C3F183E47792A3EA1683C3EFF
:1049000029124E3E257A5F3EA7A4703EC9CA803E5A
:104910004F28893EAE6C913E9A99993EB7B0A13E20
:104920009CB3A93ECEA3B13EC982B93EF951C13E66
:10493000C212C93E7FC6D03E816ED83E130CE03E07
:1049400076A0E73EE82CEF3EA2B2F63ED832FE3E1D
:104950005CD7023FBA93063F194F0A3F110A0E3F38
:1049600035C5113F1C81153F593E193F85FD1C3F40
:1049700036BF203F0684243F904C283F71192C3FBE
:104980004AEB2F3FBEC2333F75A0373F1A853B3FEE
:104990005C713F3FF065433F9263473F016B4B3F84
:1049A000067D4F3F709A533F15C4573FD6FA5B3F81
:1049B0009D3F603F5D93643F17F7683FD86B6D3F45
:1049C000B8F2713FE08C763F8A3B7B3F0000803F2E
:1049D000CF6D823FECE7843F1A6F873F2B048A3FFD
:1049E000FDA78C3F7C5B8F3FA51F923F88F5943FCE
:1049F00047DE973F18DB9A3F4BED9D3F4816A13F9E
:104A00009557A43FD6B2A73FD429AB3F7DBEAE3F5A
:104A1000EC72B23F6A49B63F7744BA3FD066BE3FB8
:104A200076B3C23FB52DC73F30D9CB3FECB9D03FAD
:104A30005DD4D53F772DDB3FBDCAE03F5AB2E63F9C
:104A400038EBEC3F207DF33FDE70FA3F37E8004063
:104A500094D30440090109400D780D4043411240B0
:104A6000B166174010F41C4029F722404D802940C0
:104A7000F5A230408D76384085174140B7A84A40AE
:104A800055555540965361406CE86E40ED6C7E4044
:104A90001E2B8840C4A0924061039F4076EBAD403E
:104AA000A037C040253AD740420FF54030A70E410D
:104AB000C14E2B4184695741B0119241148AE5419E
:104AC00022E98942907E1EC384DE10C2EBD4A1C1CC
:104AD0004DCE5EC179D028C12A2A07C1C957E0C08E
:104AE0004EE9BEC0467FA5C0A68391C0786181C053
:104AF000382668C00CD051C084C93EC0C5602EC0E5
:104B0000731220C06D7B13C07C4F08C024A6FCBF6D
:104B1000F1ADEABF886ADABF539ECBBFC316BEBFF2
:104B2000F9A9B1BFF834A6BF4A9A9BBFF3C091BFA1
:104B3000A09388BF000080BF584B000800000020F1
:104B40001800000028480008704B000818000020DA
:104B5000F80400003848000800A24A04000020427F
:104B60000100FFFFFFFFD007010000000000000070
:040000050800016985
:00000001FF
